{
  "_format": "hh-sol-artifact-1",
  "contractName": "DividendDistributor",
  "sourceName": "contracts/P4C.sol",
  "abi": [
    {
      "inputs": [
        {
          "internalType": "address",
          "name": "_router",
          "type": "address"
        }
      ],
      "stateMutability": "nonpayable",
      "type": "constructor"
    },
    {
      "inputs": [],
      "name": "claimDividend",
      "outputs": [],
      "stateMutability": "nonpayable",
      "type": "function"
    },
    {
      "inputs": [],
      "name": "deposit",
      "outputs": [],
      "stateMutability": "payable",
      "type": "function"
    },
    {
      "inputs": [],
      "name": "dividendsPerShare",
      "outputs": [
        {
          "internalType": "uint256",
          "name": "",
          "type": "uint256"
        }
      ],
      "stateMutability": "view",
      "type": "function"
    },
    {
      "inputs": [],
      "name": "dividendsPerShareAccuracyFactor",
      "outputs": [
        {
          "internalType": "uint256",
          "name": "",
          "type": "uint256"
        }
      ],
      "stateMutability": "view",
      "type": "function"
    },
    {
      "inputs": [
        {
          "internalType": "address",
          "name": "shareholder",
          "type": "address"
        }
      ],
      "name": "getUnpaidEarnings",
      "outputs": [
        {
          "internalType": "uint256",
          "name": "",
          "type": "uint256"
        }
      ],
      "stateMutability": "view",
      "type": "function"
    },
    {
      "inputs": [],
      "name": "minDistribution",
      "outputs": [
        {
          "internalType": "uint256",
          "name": "",
          "type": "uint256"
        }
      ],
      "stateMutability": "view",
      "type": "function"
    },
    {
      "inputs": [],
      "name": "minPeriod",
      "outputs": [
        {
          "internalType": "uint256",
          "name": "",
          "type": "uint256"
        }
      ],
      "stateMutability": "view",
      "type": "function"
    },
    {
      "inputs": [
        {
          "internalType": "uint256",
          "name": "gas",
          "type": "uint256"
        }
      ],
      "name": "process",
      "outputs": [],
      "stateMutability": "nonpayable",
      "type": "function"
    },
    {
      "inputs": [
        {
          "internalType": "uint256",
          "name": "_minPeriod",
          "type": "uint256"
        },
        {
          "internalType": "uint256",
          "name": "_minDistribution",
          "type": "uint256"
        }
      ],
      "name": "setDistributionCriteria",
      "outputs": [],
      "stateMutability": "nonpayable",
      "type": "function"
    },
    {
      "inputs": [
        {
          "internalType": "address",
          "name": "shareholder",
          "type": "address"
        },
        {
          "internalType": "uint256",
          "name": "amount",
          "type": "uint256"
        }
      ],
      "name": "setShare",
      "outputs": [],
      "stateMutability": "nonpayable",
      "type": "function"
    },
    {
      "inputs": [
        {
          "internalType": "address",
          "name": "",
          "type": "address"
        }
      ],
      "name": "shares",
      "outputs": [
        {
          "internalType": "uint256",
          "name": "amount",
          "type": "uint256"
        },
        {
          "internalType": "uint256",
          "name": "totalExcluded",
          "type": "uint256"
        },
        {
          "internalType": "uint256",
          "name": "totalRealised",
          "type": "uint256"
        },
        {
          "internalType": "uint256",
          "name": "currRewardId",
          "type": "uint256"
        }
      ],
      "stateMutability": "view",
      "type": "function"
    },
    {
      "inputs": [],
      "name": "totalDistributed",
      "outputs": [
        {
          "internalType": "uint256",
          "name": "",
          "type": "uint256"
        }
      ],
      "stateMutability": "view",
      "type": "function"
    },
    {
      "inputs": [],
      "name": "totalDividends",
      "outputs": [
        {
          "internalType": "uint256",
          "name": "",
          "type": "uint256"
        }
      ],
      "stateMutability": "view",
      "type": "function"
    },
    {
      "inputs": [],
      "name": "totalShares",
      "outputs": [
        {
          "internalType": "uint256",
          "name": "",
          "type": "uint256"
        }
      ],
      "stateMutability": "view",
      "type": "function"
    },
    {
      "stateMutability": "payable",
      "type": "receive"
    }
  ],
  "bytecode": "0x608060405273c02aaa39b223fe8d0a0e5c4f27ead9083c756cc2600160006101000a81548173ffffffffffffffffffffffffffffffffffffffff021916908373ffffffffffffffffffffffffffffffffffffffff1602179055506ec097ce7bc90715b34b9f1000000000600b55610e10600c55670de0b6b3a7640000600d553480156200008b57600080fd5b5060405162001aac38038062001aac8339818101604052810190620000b19190620001a2565b600073ffffffffffffffffffffffffffffffffffffffff168173ffffffffffffffffffffffffffffffffffffffff1614156200010257737a250d5630b4cf539739df2c5dacb4c659f2488d62000104565b805b600260006101000a81548173ffffffffffffffffffffffffffffffffffffffff021916908373ffffffffffffffffffffffffffffffffffffffff160217905550336000806101000a81548173ffffffffffffffffffffffffffffffffffffffff021916908373ffffffffffffffffffffffffffffffffffffffff160217905550506200021c565b6000815190506200019c8162000202565b92915050565b600060208284031215620001b557600080fd5b6000620001c5848285016200018b565b91505092915050565b6000620001db82620001e2565b9050919050565b600073ffffffffffffffffffffffffffffffffffffffff82169050919050565b6200020d81620001ce565b81146200021957600080fd5b50565b611880806200022c6000396000f3fe6080604052600436106100e15760003560e01c8063ce7c2ac21161007f578063efca2eed11610059578063efca2eed146102a5578063f0fc6bca146102d0578063ffb2c479146102e7578063ffd49c8414610310576100f0565b8063ce7c2ac214610230578063d0e30db014610270578063e2d2e2191461027a576100f0565b80632d48e896116100bb5780632d48e896146101865780633a98ef39146101af5780634fab0ae8146101da578063997664d714610205576100f0565b806311ce023d146100f557806314b6ca961461012057806328fd319814610149576100f0565b366100f0576100ee61033b565b005b600080fd5b34801561010157600080fd5b5061010a6103ad565b60405161011791906114de565b60405180910390f35b34801561012c57600080fd5b5061014760048036038101906101429190611315565b6103b3565b005b34801561015557600080fd5b50610170600480360381019061016b91906112ec565b610672565b60405161017d91906114de565b60405180910390f35b34801561019257600080fd5b506101ad60048036038101906101a8919061137a565b61078c565b005b3480156101bb57600080fd5b506101c46107f6565b6040516101d191906114de565b60405180910390f35b3480156101e657600080fd5b506101ef6107fc565b6040516101fc91906114de565b60405180910390f35b34801561021157600080fd5b5061021a610802565b60405161022791906114de565b60405180910390f35b34801561023c57600080fd5b50610257600480360381019061025291906112ec565b610808565b60405161026794939291906114f9565b60405180910390f35b61027861033b565b005b34801561028657600080fd5b5061028f610838565b60405161029c91906114de565b60405180910390f35b3480156102b157600080fd5b506102ba61083e565b6040516102c791906114de565b60405180910390f35b3480156102dc57600080fd5b506102e5610844565b005b3480156102f357600080fd5b5061030e60048036038101906103099190611351565b61084f565b005b34801561031c57600080fd5b50610325610a2f565b60405161033291906114de565b60405180910390f35b600034905061035581600854610a3590919063ffffffff16565b600881905550600060075411156103aa576103a361039260075461038484600b54610a9390919063ffffffff16565b610b0e90919063ffffffff16565b600a54610a3590919063ffffffff16565b600a819055505b50565b600b5481565b60008054906101000a900473ffffffffffffffffffffffffffffffffffffffff1673ffffffffffffffffffffffffffffffffffffffff163373ffffffffffffffffffffffffffffffffffffffff161461040b57600080fd5b6000600660008473ffffffffffffffffffffffffffffffffffffffff1673ffffffffffffffffffffffffffffffffffffffff1681526020019081526020016000206000015411156104605761045f82610b58565b5b6000811180156104b257506000600660008473ffffffffffffffffffffffffffffffffffffffff1673ffffffffffffffffffffffffffffffffffffffff16815260200190815260200160002060000154145b156104c5576104c082610dc4565b610527565b60008114801561051757506000600660008473ffffffffffffffffffffffffffffffffffffffff1673ffffffffffffffffffffffffffffffffffffffff16815260200190815260200160002060000154115b156105265761052582610e73565b5b5b61059081610582600660008673ffffffffffffffffffffffffffffffffffffffff1673ffffffffffffffffffffffffffffffffffffffff1681526020019081526020016000206000015460075461111290919063ffffffff16565b610a3590919063ffffffff16565b60078190555080600660008473ffffffffffffffffffffffffffffffffffffffff1673ffffffffffffffffffffffffffffffffffffffff16815260200190815260200160002060000181905550610628600660008473ffffffffffffffffffffffffffffffffffffffff1673ffffffffffffffffffffffffffffffffffffffff1681526020019081526020016000206000015461115c565b600660008473ffffffffffffffffffffffffffffffffffffffff1673ffffffffffffffffffffffffffffffffffffffff168152602001908152602001600020600101819055505050565b600080600660008473ffffffffffffffffffffffffffffffffffffffff1673ffffffffffffffffffffffffffffffffffffffff1681526020019081526020016000206000015414156106c75760009050610787565b6000610714600660008573ffffffffffffffffffffffffffffffffffffffff1673ffffffffffffffffffffffffffffffffffffffff1681526020019081526020016000206000015461115c565b90506000600660008573ffffffffffffffffffffffffffffffffffffffff1673ffffffffffffffffffffffffffffffffffffffff16815260200190815260200160002060010154905080821161076f57600092505050610787565b610782818361111290919063ffffffff16565b925050505b919050565b60008054906101000a900473ffffffffffffffffffffffffffffffffffffffff1673ffffffffffffffffffffffffffffffffffffffff163373ffffffffffffffffffffffffffffffffffffffff16146107e457600080fd5b81600c8190555080600d819055505050565b60075481565b600d5481565b60085481565b60066020528060005260406000206000915090508060000154908060010154908060020154908060030154905084565b600a5481565b60095481565b61084d33610b58565b565b60008054906101000a900473ffffffffffffffffffffffffffffffffffffffff1673ffffffffffffffffffffffffffffffffffffffff163373ffffffffffffffffffffffffffffffffffffffff16146108a757600080fd5b6000600380549050905060008114156108c05750610a2c565b6000805a905060005b84831080156108d757508381105b15610a275783600e54106108ee576000600e819055505b61095d6003600e548154811061092d577f4e487b7100000000000000000000000000000000000000000000000000000000600052603260045260246000fd5b9060005260206000200160009054906101000a900473ffffffffffffffffffffffffffffffffffffffff1661118e565b156109d2576109d16003600e54815481106109a1577f4e487b7100000000000000000000000000000000000000000000000000000000600052603260045260246000fd5b9060005260206000200160009054906101000a900473ffffffffffffffffffffffffffffffffffffffff16610b58565b5b6109f76109e85a8461111290919063ffffffff16565b84610a3590919063ffffffff16565b92505a9150600e6000815480929190610a0f906116e9565b91905055508080610a1f906116e9565b9150506108c9565b505050505b50565b600c5481565b6000808284610a449190611565565b905083811015610a89576040517f08c379a0000000000000000000000000000000000000000000000000000000008152600401610a809061149e565b60405180910390fd5b8091505092915050565b600080831415610aa65760009050610b08565b60008284610ab491906115ec565b9050828482610ac391906115bb565b14610b03576040517f08c379a0000000000000000000000000000000000000000000000000000000008152600401610afa906114be565b60405180910390fd5b809150505b92915050565b6000610b5083836040518060400160405280601a81526020017f536166654d6174683a206469766973696f6e206279207a65726f0000000000008152506111fb565b905092915050565b6000600660008373ffffffffffffffffffffffffffffffffffffffff1673ffffffffffffffffffffffffffffffffffffffff168152602001908152602001600020600001541415610ba857610dc1565b6000610bb382610672565b90506000811115610dbf57610bd381600954610a3590919063ffffffff16565b6009819055506000808373ffffffffffffffffffffffffffffffffffffffff168361753090604051610c0490611467565b600060405180830381858888f193505050503d8060008114610c42576040519150601f19603f3d011682016040523d82523d6000602084013e610c47565b606091505b509150915042600560008673ffffffffffffffffffffffffffffffffffffffff1673ffffffffffffffffffffffffffffffffffffffff16815260200190815260200160002081905550610ce583600660008773ffffffffffffffffffffffffffffffffffffffff1673ffffffffffffffffffffffffffffffffffffffff16815260200190815260200160002060020154610a3590919063ffffffff16565b600660008673ffffffffffffffffffffffffffffffffffffffff1673ffffffffffffffffffffffffffffffffffffffff16815260200190815260200160002060020181905550610d76600660008673ffffffffffffffffffffffffffffffffffffffff1673ffffffffffffffffffffffffffffffffffffffff1681526020019081526020016000206000015461115c565b600660008673ffffffffffffffffffffffffffffffffffffffff1673ffffffffffffffffffffffffffffffffffffffff1681526020019081526020016000206001018190555050505b505b50565b600380549050600460008373ffffffffffffffffffffffffffffffffffffffff1673ffffffffffffffffffffffffffffffffffffffff168152602001908152602001600020819055506003819080600181540180825580915050600190039060005260206000200160009091909190916101000a81548173ffffffffffffffffffffffffffffffffffffffff021916908373ffffffffffffffffffffffffffffffffffffffff16021790555050565b60036001600380549050610e879190611646565b81548110610ebe577f4e487b7100000000000000000000000000000000000000000000000000000000600052603260045260246000fd5b9060005260206000200160009054906101000a900473ffffffffffffffffffffffffffffffffffffffff166003600460008473ffffffffffffffffffffffffffffffffffffffff1673ffffffffffffffffffffffffffffffffffffffff1681526020019081526020016000205481548110610f62577f4e487b7100000000000000000000000000000000000000000000000000000000600052603260045260246000fd5b9060005260206000200160006101000a81548173ffffffffffffffffffffffffffffffffffffffff021916908373ffffffffffffffffffffffffffffffffffffffff160217905550600460008273ffffffffffffffffffffffffffffffffffffffff1673ffffffffffffffffffffffffffffffffffffffff1681526020019081526020016000205460046000600360016003805490506110029190611646565b81548110611039577f4e487b7100000000000000000000000000000000000000000000000000000000600052603260045260246000fd5b9060005260206000200160009054906101000a900473ffffffffffffffffffffffffffffffffffffffff1673ffffffffffffffffffffffffffffffffffffffff1673ffffffffffffffffffffffffffffffffffffffff1681526020019081526020016000208190555060038054806110da577f4e487b7100000000000000000000000000000000000000000000000000000000600052603160045260246000fd5b6001900381819060005260206000200160006101000a81549073ffffffffffffffffffffffffffffffffffffffff0219169055905550565b600061115483836040518060400160405280601e81526020017f536166654d6174683a207375627472616374696f6e206f766572666c6f77000081525061125e565b905092915050565b6000611187600b54611179600a5485610a9390919063ffffffff16565b610b0e90919063ffffffff16565b9050919050565b600042600c54600560008573ffffffffffffffffffffffffffffffffffffffff1673ffffffffffffffffffffffffffffffffffffffff168152602001908152602001600020546111de9190611565565b1080156111f45750600d546111f283610672565b115b9050919050565b60008083118290611242576040517f08c379a0000000000000000000000000000000000000000000000000000000008152600401611239919061147c565b60405180910390fd5b506000838561125191906115bb565b9050809150509392505050565b60008383111582906112a6576040517f08c379a000000000000000000000000000000000000000000000000000000000815260040161129d919061147c565b60405180910390fd5b50600083856112b59190611646565b9050809150509392505050565b6000813590506112d18161181c565b92915050565b6000813590506112e681611833565b92915050565b6000602082840312156112fe57600080fd5b600061130c848285016112c2565b91505092915050565b6000806040838503121561132857600080fd5b6000611336858286016112c2565b9250506020611347858286016112d7565b9150509250929050565b60006020828403121561136357600080fd5b6000611371848285016112d7565b91505092915050565b6000806040838503121561138d57600080fd5b600061139b858286016112d7565b92505060206113ac858286016112d7565b9150509250929050565b60006113c18261153e565b6113cb8185611554565b93506113db8185602086016116b6565b6113e481611790565b840191505092915050565b60006113fc601b83611554565b9150611407826117a1565b602082019050919050565b600061141f602183611554565b915061142a826117ca565b604082019050919050565b6000611442600083611549565b915061144d82611819565b600082019050919050565b611461816116ac565b82525050565b600061147282611435565b9150819050919050565b6000602082019050818103600083015261149681846113b6565b905092915050565b600060208201905081810360008301526114b7816113ef565b9050919050565b600060208201905081810360008301526114d781611412565b9050919050565b60006020820190506114f36000830184611458565b92915050565b600060808201905061150e6000830187611458565b61151b6020830186611458565b6115286040830185611458565b6115356060830184611458565b95945050505050565b600081519050919050565b600081905092915050565b600082825260208201905092915050565b6000611570826116ac565b915061157b836116ac565b9250827fffffffffffffffffffffffffffffffffffffffffffffffffffffffffffffffff038211156115b0576115af611732565b5b828201905092915050565b60006115c6826116ac565b91506115d1836116ac565b9250826115e1576115e0611761565b5b828204905092915050565b60006115f7826116ac565b9150611602836116ac565b9250817fffffffffffffffffffffffffffffffffffffffffffffffffffffffffffffffff048311821515161561163b5761163a611732565b5b828202905092915050565b6000611651826116ac565b915061165c836116ac565b92508282101561166f5761166e611732565b5b828203905092915050565b60006116858261168c565b9050919050565b600073ffffffffffffffffffffffffffffffffffffffff82169050919050565b6000819050919050565b60005b838110156116d45780820151818401526020810190506116b9565b838111156116e3576000848401525b50505050565b60006116f4826116ac565b91507fffffffffffffffffffffffffffffffffffffffffffffffffffffffffffffffff82141561172757611726611732565b5b600182019050919050565b7f4e487b7100000000000000000000000000000000000000000000000000000000600052601160045260246000fd5b7f4e487b7100000000000000000000000000000000000000000000000000000000600052601260045260246000fd5b6000601f19601f8301169050919050565b7f536166654d6174683a206164646974696f6e206f766572666c6f770000000000600082015250565b7f536166654d6174683a206d756c7469706c69636174696f6e206f766572666c6f60008201527f7700000000000000000000000000000000000000000000000000000000000000602082015250565b50565b6118258161167a565b811461183057600080fd5b50565b61183c816116ac565b811461184757600080fd5b5056fea2646970667358221220b36bfd8f3b469228d5eaad4f49c78e89af1feff4007cd719298bec334e9a22dd64736f6c63430008040033",
  "linkReferences": {},
  "deployedLinkReferences": {}
}