{
  "_format": "hh-sol-artifact-1",
  "contractName": "P4C",
  "sourceName": "contracts/P4C.sol",
  "abi": [
    {
      "inputs": [],
      "stateMutability": "nonpayable",
      "type": "constructor"
    },
    {
      "anonymous": false,
      "inputs": [
        {
          "indexed": true,
          "internalType": "address",
          "name": "owner",
          "type": "address"
        },
        {
          "indexed": true,
          "internalType": "address",
          "name": "spender",
          "type": "address"
        },
        {
          "indexed": false,
          "internalType": "uint256",
          "name": "value",
          "type": "uint256"
        }
      ],
      "name": "Approval",
      "type": "event"
    },
    {
      "anonymous": false,
      "inputs": [
        {
          "indexed": false,
          "internalType": "uint256",
          "name": "amountETH",
          "type": "uint256"
        },
        {
          "indexed": false,
          "internalType": "uint256",
          "name": "amount",
          "type": "uint256"
        }
      ],
      "name": "AutoLiquify",
      "type": "event"
    },
    {
      "anonymous": false,
      "inputs": [
        {
          "indexed": true,
          "internalType": "address",
          "name": "previousOwner",
          "type": "address"
        },
        {
          "indexed": true,
          "internalType": "address",
          "name": "newOwner",
          "type": "address"
        }
      ],
      "name": "OwnershipTransferred",
      "type": "event"
    },
    {
      "anonymous": false,
      "inputs": [
        {
          "indexed": true,
          "internalType": "address",
          "name": "from",
          "type": "address"
        },
        {
          "indexed": true,
          "internalType": "address",
          "name": "to",
          "type": "address"
        },
        {
          "indexed": false,
          "internalType": "uint256",
          "name": "value",
          "type": "uint256"
        }
      ],
      "name": "Transfer",
      "type": "event"
    },
    {
      "inputs": [],
      "name": "_maxTxAmount",
      "outputs": [
        {
          "internalType": "uint256",
          "name": "",
          "type": "uint256"
        }
      ],
      "stateMutability": "view",
      "type": "function"
    },
    {
      "inputs": [
        {
          "internalType": "address",
          "name": "holder",
          "type": "address"
        },
        {
          "internalType": "address",
          "name": "spender",
          "type": "address"
        }
      ],
      "name": "allowance",
      "outputs": [
        {
          "internalType": "uint256",
          "name": "",
          "type": "uint256"
        }
      ],
      "stateMutability": "view",
      "type": "function"
    },
    {
      "inputs": [
        {
          "internalType": "address",
          "name": "spender",
          "type": "address"
        },
        {
          "internalType": "uint256",
          "name": "amount",
          "type": "uint256"
        }
      ],
      "name": "approve",
      "outputs": [
        {
          "internalType": "bool",
          "name": "",
          "type": "bool"
        }
      ],
      "stateMutability": "nonpayable",
      "type": "function"
    },
    {
      "inputs": [
        {
          "internalType": "address",
          "name": "spender",
          "type": "address"
        }
      ],
      "name": "approveMax",
      "outputs": [
        {
          "internalType": "bool",
          "name": "",
          "type": "bool"
        }
      ],
      "stateMutability": "nonpayable",
      "type": "function"
    },
    {
      "inputs": [
        {
          "internalType": "address",
          "name": "account",
          "type": "address"
        }
      ],
      "name": "balanceOf",
      "outputs": [
        {
          "internalType": "uint256",
          "name": "",
          "type": "uint256"
        }
      ],
      "stateMutability": "view",
      "type": "function"
    },
    {
      "inputs": [],
      "name": "decimals",
      "outputs": [
        {
          "internalType": "uint8",
          "name": "",
          "type": "uint8"
        }
      ],
      "stateMutability": "pure",
      "type": "function"
    },
    {
      "inputs": [],
      "name": "distributor",
      "outputs": [
        {
          "internalType": "contract DividendDistributor",
          "name": "",
          "type": "address"
        }
      ],
      "stateMutability": "view",
      "type": "function"
    },
    {
      "inputs": [],
      "name": "getCirculatingSupply",
      "outputs": [
        {
          "internalType": "uint256",
          "name": "",
          "type": "uint256"
        }
      ],
      "stateMutability": "view",
      "type": "function"
    },
    {
      "inputs": [],
      "name": "getOwner",
      "outputs": [
        {
          "internalType": "address",
          "name": "",
          "type": "address"
        }
      ],
      "stateMutability": "view",
      "type": "function"
    },
    {
      "inputs": [],
      "name": "getTime",
      "outputs": [
        {
          "internalType": "uint256",
          "name": "",
          "type": "uint256"
        }
      ],
      "stateMutability": "view",
      "type": "function"
    },
    {
      "inputs": [],
      "name": "getUnlockTime",
      "outputs": [
        {
          "internalType": "uint256",
          "name": "",
          "type": "uint256"
        }
      ],
      "stateMutability": "view",
      "type": "function"
    },
    {
      "inputs": [
        {
          "internalType": "uint256",
          "name": "time",
          "type": "uint256"
        }
      ],
      "name": "lock",
      "outputs": [],
      "stateMutability": "nonpayable",
      "type": "function"
    },
    {
      "inputs": [],
      "name": "name",
      "outputs": [
        {
          "internalType": "string",
          "name": "",
          "type": "string"
        }
      ],
      "stateMutability": "pure",
      "type": "function"
    },
    {
      "inputs": [],
      "name": "owner",
      "outputs": [
        {
          "internalType": "address",
          "name": "",
          "type": "address"
        }
      ],
      "stateMutability": "view",
      "type": "function"
    },
    {
      "inputs": [],
      "name": "pair",
      "outputs": [
        {
          "internalType": "address",
          "name": "",
          "type": "address"
        }
      ],
      "stateMutability": "view",
      "type": "function"
    },
    {
      "inputs": [],
      "name": "renounceOwnership",
      "outputs": [],
      "stateMutability": "nonpayable",
      "type": "function"
    },
    {
      "inputs": [],
      "name": "router",
      "outputs": [
        {
          "internalType": "contract IDEXRouter",
          "name": "",
          "type": "address"
        }
      ],
      "stateMutability": "view",
      "type": "function"
    },
    {
      "inputs": [
        {
          "internalType": "uint256",
          "name": "_minPeriod",
          "type": "uint256"
        },
        {
          "internalType": "uint256",
          "name": "_minDistribution",
          "type": "uint256"
        }
      ],
      "name": "setDistributionCriteria",
      "outputs": [],
      "stateMutability": "nonpayable",
      "type": "function"
    },
    {
      "inputs": [
        {
          "internalType": "uint256",
          "name": "gas",
          "type": "uint256"
        }
      ],
      "name": "setDistributorSettings",
      "outputs": [],
      "stateMutability": "nonpayable",
      "type": "function"
    },
    {
      "inputs": [
        {
          "internalType": "uint256",
          "name": "_reflectionFee",
          "type": "uint256"
        },
        {
          "internalType": "uint256",
          "name": "_liquidFee",
          "type": "uint256"
        }
      ],
      "name": "setFees",
      "outputs": [],
      "stateMutability": "nonpayable",
      "type": "function"
    },
    {
      "inputs": [
        {
          "internalType": "address",
          "name": "holder",
          "type": "address"
        },
        {
          "internalType": "bool",
          "name": "exempt",
          "type": "bool"
        }
      ],
      "name": "setIsDividendExempt",
      "outputs": [],
      "stateMutability": "nonpayable",
      "type": "function"
    },
    {
      "inputs": [
        {
          "internalType": "address",
          "name": "holder",
          "type": "address"
        },
        {
          "internalType": "bool",
          "name": "exempt",
          "type": "bool"
        }
      ],
      "name": "setIsFeeExempt",
      "outputs": [],
      "stateMutability": "nonpayable",
      "type": "function"
    },
    {
      "inputs": [
        {
          "internalType": "address",
          "name": "holder",
          "type": "address"
        },
        {
          "internalType": "bool",
          "name": "exempt",
          "type": "bool"
        }
      ],
      "name": "setIsTxLimitExempt",
      "outputs": [],
      "stateMutability": "nonpayable",
      "type": "function"
    },
    {
      "inputs": [
        {
          "internalType": "bool",
          "name": "_enabled",
          "type": "bool"
        },
        {
          "internalType": "uint256",
          "name": "_amount",
          "type": "uint256"
        }
      ],
      "name": "setSwapBackSettings",
      "outputs": [],
      "stateMutability": "nonpayable",
      "type": "function"
    },
    {
      "inputs": [
        {
          "internalType": "uint256",
          "name": "amount",
          "type": "uint256"
        }
      ],
      "name": "setTxLimit",
      "outputs": [],
      "stateMutability": "nonpayable",
      "type": "function"
    },
    {
      "inputs": [],
      "name": "swapEnabled",
      "outputs": [
        {
          "internalType": "bool",
          "name": "",
          "type": "bool"
        }
      ],
      "stateMutability": "view",
      "type": "function"
    },
    {
      "inputs": [],
      "name": "swapThreshold",
      "outputs": [
        {
          "internalType": "uint256",
          "name": "",
          "type": "uint256"
        }
      ],
      "stateMutability": "view",
      "type": "function"
    },
    {
      "inputs": [],
      "name": "symbol",
      "outputs": [
        {
          "internalType": "string",
          "name": "",
          "type": "string"
        }
      ],
      "stateMutability": "pure",
      "type": "function"
    },
    {
      "inputs": [],
      "name": "totalSupply",
      "outputs": [
        {
          "internalType": "uint256",
          "name": "",
          "type": "uint256"
        }
      ],
      "stateMutability": "view",
      "type": "function"
    },
    {
      "inputs": [
        {
          "internalType": "address",
          "name": "recipient",
          "type": "address"
        },
        {
          "internalType": "uint256",
          "name": "amount",
          "type": "uint256"
        }
      ],
      "name": "transfer",
      "outputs": [
        {
          "internalType": "bool",
          "name": "",
          "type": "bool"
        }
      ],
      "stateMutability": "nonpayable",
      "type": "function"
    },
    {
      "inputs": [
        {
          "internalType": "address",
          "name": "sender",
          "type": "address"
        },
        {
          "internalType": "address",
          "name": "recipient",
          "type": "address"
        },
        {
          "internalType": "uint256",
          "name": "amount",
          "type": "uint256"
        }
      ],
      "name": "transferFrom",
      "outputs": [
        {
          "internalType": "bool",
          "name": "",
          "type": "bool"
        }
      ],
      "stateMutability": "nonpayable",
      "type": "function"
    },
    {
      "inputs": [
        {
          "internalType": "address payable",
          "name": "newOwner",
          "type": "address"
        }
      ],
      "name": "transferOwnership",
      "outputs": [],
      "stateMutability": "nonpayable",
      "type": "function"
    },
    {
      "inputs": [],
      "name": "unlock",
      "outputs": [],
      "stateMutability": "nonpayable",
      "type": "function"
    },
    {
      "stateMutability": "payable",
      "type": "receive"
    }
  ],
  "bytecode": "0x608060405273c02aaa39b223fe8d0a0e5c4f27ead9083c756cc2600360006101000a81548173ffffffffffffffffffffffffffffffffffffffff021916908373ffffffffffffffffffffffffffffffffffffffff16021790555061dead600460006101000a81548173ffffffffffffffffffffffffffffffffffffffff021916908373ffffffffffffffffffffffffffffffffffffffff1602179055506000600560006101000a81548173ffffffffffffffffffffffffffffffffffffffff021916908373ffffffffffffffffffffffffffffffffffffffff1602179055506012600a620000ee919062000abc565b6503a35294400062000101919062000bf9565b600655601460065462000115919062000a29565b6007556001600d556001600e556002600f5560026010556207a1206015556001601660006101000a81548160ff021916908315150217905550614e2060065462000160919062000a29565b6017553480156200017057600080fd5b506000620001836200091e60201b60201c565b9050806000806101000a81548173ffffffffffffffffffffffffffffffffffffffff021916908373ffffffffffffffffffffffffffffffffffffffff1602179055508073ffffffffffffffffffffffffffffffffffffffff16600073ffffffffffffffffffffffffffffffffffffffff167f8be0079c531659141344cd1fd0a4f28419497f9722a3daafe3b4186f6b6457e060405160405180910390a350737a250d5630b4cf539739df2c5dacb4c659f2488d601260006101000a81548173ffffffffffffffffffffffffffffffffffffffff021916908373ffffffffffffffffffffffffffffffffffffffff160217905550601260009054906101000a900473ffffffffffffffffffffffffffffffffffffffff1673ffffffffffffffffffffffffffffffffffffffff1663c45a01556040518163ffffffff1660e01b815260040160206040518083038186803b158015620002df57600080fd5b505afa158015620002f4573d6000803e3d6000fd5b505050506040513d601f19601f820116820180604052508101906200031a919062000974565b73ffffffffffffffffffffffffffffffffffffffff1663c9c65396600360009054906101000a900473ffffffffffffffffffffffffffffffffffffffff16306040518363ffffffff1660e01b815260040162000378929190620009df565b602060405180830381600087803b1580156200039357600080fd5b505af1158015620003a8573d6000803e3d6000fd5b505050506040513d601f19601f82011682018060405250810190620003ce919062000974565b601360006101000a81548173ffffffffffffffffffffffffffffffffffffffff021916908373ffffffffffffffffffffffffffffffffffffffff1602179055507fffffffffffffffffffffffffffffffffffffffffffffffffffffffffffffffff600960003073ffffffffffffffffffffffffffffffffffffffff1673ffffffffffffffffffffffffffffffffffffffff1681526020019081526020016000206000601260009054906101000a900473ffffffffffffffffffffffffffffffffffffffff1673ffffffffffffffffffffffffffffffffffffffff1673ffffffffffffffffffffffffffffffffffffffff16815260200190815260200160002081905550601260009054906101000a900473ffffffffffffffffffffffffffffffffffffffff1660405162000502906200094f565b6200050e9190620009c2565b604051809103906000f0801580156200052b573d6000803e3d6000fd5b50601460006101000a81548173ffffffffffffffffffffffffffffffffffffffff021916908373ffffffffffffffffffffffffffffffffffffffff1602179055506001600a60003373ffffffffffffffffffffffffffffffffffffffff1673ffffffffffffffffffffffffffffffffffffffff16815260200190815260200160002060006101000a81548160ff0219169083151502179055506001600a60003073ffffffffffffffffffffffffffffffffffffffff1673ffffffffffffffffffffffffffffffffffffffff16815260200190815260200160002060006101000a81548160ff0219169083151502179055506001600b60003373ffffffffffffffffffffffffffffffffffffffff1673ffffffffffffffffffffffffffffffffffffffff16815260200190815260200160002060006101000a81548160ff0219169083151502179055506001600b60003073ffffffffffffffffffffffffffffffffffffffff1673ffffffffffffffffffffffffffffffffffffffff16815260200190815260200160002060006101000a81548160ff0219169083151502179055506001600c6000601360009054906101000a900473ffffffffffffffffffffffffffffffffffffffff1673ffffffffffffffffffffffffffffffffffffffff1673ffffffffffffffffffffffffffffffffffffffff16815260200190815260200160002060006101000a81548160ff0219169083151502179055506001600c60003073ffffffffffffffffffffffffffffffffffffffff1673ffffffffffffffffffffffffffffffffffffffff16815260200190815260200160002060006101000a81548160ff0219169083151502179055506001600c6000600460009054906101000a900473ffffffffffffffffffffffffffffffffffffffff1673ffffffffffffffffffffffffffffffffffffffff1673ffffffffffffffffffffffffffffffffffffffff16815260200190815260200160002060006101000a81548160ff021916908315150217905550620008286200092660201b60201c565b601160006101000a81548173ffffffffffffffffffffffffffffffffffffffff021916908373ffffffffffffffffffffffffffffffffffffffff160217905550600654600860003373ffffffffffffffffffffffffffffffffffffffff1673ffffffffffffffffffffffffffffffffffffffff168152602001908152602001600020819055503373ffffffffffffffffffffffffffffffffffffffff16600073ffffffffffffffffffffffffffffffffffffffff167fddf252ad1be2c89b69c2b068fc378daa952ba7f163c4a11628f55a4df523b3ef60065460405162000910919062000a0c565b60405180910390a362000d2a565b600033905090565b60008060009054906101000a900473ffffffffffffffffffffffffffffffffffffffff16905090565b611aac8062004b1483390190565b6000815190506200096e8162000d10565b92915050565b6000602082840312156200098757600080fd5b600062000997848285016200095d565b91505092915050565b620009ab8162000c5a565b82525050565b620009bc8162000c8e565b82525050565b6000602082019050620009d96000830184620009a0565b92915050565b6000604082019050620009f66000830185620009a0565b62000a056020830184620009a0565b9392505050565b600060208201905062000a236000830184620009b1565b92915050565b600062000a368262000c8e565b915062000a438362000c8e565b92508262000a565762000a5562000cd4565b5b828204905092915050565b6000808291508390505b600185111562000ab35780860481111562000a8b5762000a8a62000ca5565b5b600185161562000a9b5780820291505b808102905062000aab8562000d03565b945062000a6b565b94509492505050565b600062000ac98262000c8e565b915062000ad68362000c98565b925062000b057fffffffffffffffffffffffffffffffffffffffffffffffffffffffffffffffff848462000b0d565b905092915050565b60008262000b1f576001905062000bf2565b8162000b2f576000905062000bf2565b816001811462000b48576002811462000b535762000b89565b600191505062000bf2565b60ff84111562000b685762000b6762000ca5565b5b8360020a91508482111562000b825762000b8162000ca5565b5b5062000bf2565b5060208310610133831016604e8410600b841016171562000bc35782820a90508381111562000bbd5762000bbc62000ca5565b5b62000bf2565b62000bd2848484600162000a61565b9250905081840481111562000bec5762000beb62000ca5565b5b81810290505b9392505050565b600062000c068262000c8e565b915062000c138362000c8e565b9250817fffffffffffffffffffffffffffffffffffffffffffffffffffffffffffffffff048311821515161562000c4f5762000c4e62000ca5565b5b828202905092915050565b600062000c678262000c6e565b9050919050565b600073ffffffffffffffffffffffffffffffffffffffff82169050919050565b6000819050919050565b600060ff82169050919050565b7f4e487b7100000000000000000000000000000000000000000000000000000000600052601160045260246000fd5b7f4e487b7100000000000000000000000000000000000000000000000000000000600052601260045260246000fd5b60008160011c9050919050565b62000d1b8162000c5a565b811462000d2757600080fd5b50565b613dda8062000d3a6000396000f3fe6080604052600436106101f25760003560e01c8063715018a61161010d578063a9059cbb116100a0578063df20fd491161006f578063df20fd49146106ea578063f2fde38b14610713578063f708a64f1461073c578063f84ba65d14610765578063f887ea401461078e576101f9565b8063a9059cbb1461061c578063bfe1092814610659578063dd46706414610684578063dd62ed3e146106ad576101f9565b806395d89b41116100dc57806395d89b41146105865780639d1944f5146105b1578063a69df4b5146105da578063a8aa1b31146105f1576101f9565b8063715018a6146104ee5780637d1db4a514610505578063893d20e8146105305780638da5cb5b1461055b576101f9565b8063313ce56711610185578063602bc62b11610154578063602bc62b14610432578063658d4b7f1461045d5780636ddd17131461048657806370a08231146104b1576101f9565b8063313ce56714610376578063557ed1ba146103a1578063571ac8b0146103cc5780635c85974f14610409576101f9565b806318160ddd116101c157806318160ddd146102ba57806323b872dd146102e55780632b112e49146103225780632d48e8961461034d576101f9565b80630445b667146101fe57806306fdde0314610229578063095ea7b3146102545780630b78f9c014610291576101f9565b366101f957005b600080fd5b34801561020a57600080fd5b506102136107b9565b6040516102209190613808565b60405180910390f35b34801561023557600080fd5b5061023e6107bf565b60405161024b9190613686565b60405180910390f35b34801561026057600080fd5b5061027b600480360381019061027691906132ac565b6107fc565b6040516102889190613635565b60405180910390f35b34801561029d57600080fd5b506102b860048036038101906102b3919061334d565b6108ee565b005b3480156102c657600080fd5b506102cf6109ae565b6040516102dc9190613808565b60405180910390f35b3480156102f157600080fd5b5061030c60048036038101906103079190613221565b6109b8565b6040516103199190613635565b60405180910390f35b34801561032e57600080fd5b50610337610bb8565b6040516103449190613808565b60405180910390f35b34801561035957600080fd5b50610374600480360381019061036f919061334d565b610c3a565b005b34801561038257600080fd5b5061038b610d62565b60405161039891906138a6565b60405180910390f35b3480156103ad57600080fd5b506103b6610d6b565b6040516103c39190613808565b60405180910390f35b3480156103d857600080fd5b506103f360048036038101906103ee9190613193565b610d73565b6040516104009190613635565b60405180910390f35b34801561041557600080fd5b50610430600480360381019061042b9190613324565b610da6565b005b34801561043e57600080fd5b50610447610e97565b6040516104549190613808565b60405180910390f35b34801561046957600080fd5b50610484600480360381019061047f9190613270565b610ea1565b005b34801561049257600080fd5b5061049b610f91565b6040516104a89190613635565b60405180910390f35b3480156104bd57600080fd5b506104d860048036038101906104d39190613193565b610fa4565b6040516104e59190613808565b60405180910390f35b3480156104fa57600080fd5b50610503610fed565b005b34801561051157600080fd5b5061051a611140565b6040516105279190613808565b60405180910390f35b34801561053c57600080fd5b50610545611146565b60405161055291906135c8565b60405180910390f35b34801561056757600080fd5b50610570611155565b60405161057d91906135c8565b60405180910390f35b34801561059257600080fd5b5061059b61117e565b6040516105a89190613686565b60405180910390f35b3480156105bd57600080fd5b506105d860048036038101906105d39190613324565b6111bb565b005b3480156105e657600080fd5b506105ef611269565b005b3480156105fd57600080fd5b5061060661143d565b60405161061391906135c8565b60405180910390f35b34801561062857600080fd5b50610643600480360381019061063e91906132ac565b611463565b6040516106509190613635565b60405180910390f35b34801561066557600080fd5b5061066e611478565b60405161067b9190613650565b60405180910390f35b34801561069057600080fd5b506106ab60048036038101906106a69190613324565b61149e565b005b3480156106b957600080fd5b506106d460048036038101906106cf91906131e5565b611665565b6040516106e19190613808565b60405180910390f35b3480156106f657600080fd5b50610711600480360381019061070c91906132e8565b6116ec565b005b34801561071f57600080fd5b5061073a600480360381019061073591906131bc565b6117a6565b005b34801561074857600080fd5b50610763600480360381019061075e9190613270565b611847565b005b34801561077157600080fd5b5061078c60048036038101906107879190613270565b611b34565b005b34801561079a57600080fd5b506107a3611c24565b6040516107b0919061366b565b60405180910390f35b60175481565b60606040518060400160405280600381526020017f5034430000000000000000000000000000000000000000000000000000000000815250905090565b600081600960003373ffffffffffffffffffffffffffffffffffffffff1673ffffffffffffffffffffffffffffffffffffffff16815260200190815260200160002060008573ffffffffffffffffffffffffffffffffffffffff1673ffffffffffffffffffffffffffffffffffffffff168152602001908152602001600020819055508273ffffffffffffffffffffffffffffffffffffffff163373ffffffffffffffffffffffffffffffffffffffff167f8c5be1e5ebec7d5bd14f71427d1e84f3dd0314c0f7b2291e5b200ac8c7c3b925846040516108dc9190613808565b60405180910390a36001905092915050565b6108f6611c4a565b73ffffffffffffffffffffffffffffffffffffffff1660008054906101000a900473ffffffffffffffffffffffffffffffffffffffff1673ffffffffffffffffffffffffffffffffffffffff1614610983576040517f08c379a000000000000000000000000000000000000000000000000000000000815260040161097a906137a8565b60405180910390fd5b81600d8190555080600e819055506109a48183611c5290919063ffffffff16565b6010819055505050565b6000600654905090565b60007fffffffffffffffffffffffffffffffffffffffffffffffffffffffffffffffff600960008673ffffffffffffffffffffffffffffffffffffffff1673ffffffffffffffffffffffffffffffffffffffff16815260200190815260200160002060003373ffffffffffffffffffffffffffffffffffffffff1673ffffffffffffffffffffffffffffffffffffffff1681526020019081526020016000205414610ba457610b23826040518060400160405280601681526020017f496e73756666696369656e7420416c6c6f77616e636500000000000000000000815250600960008873ffffffffffffffffffffffffffffffffffffffff1673ffffffffffffffffffffffffffffffffffffffff16815260200190815260200160002060003373ffffffffffffffffffffffffffffffffffffffff1673ffffffffffffffffffffffffffffffffffffffff16815260200190815260200160002054611cb09092919063ffffffff16565b600960008673ffffffffffffffffffffffffffffffffffffffff1673ffffffffffffffffffffffffffffffffffffffff16815260200190815260200160002060003373ffffffffffffffffffffffffffffffffffffffff1673ffffffffffffffffffffffffffffffffffffffff168152602001908152602001600020819055505b610baf848484611d14565b90509392505050565b6000610c35610be8600560009054906101000a900473ffffffffffffffffffffffffffffffffffffffff16610fa4565b610c27610c16600460009054906101000a900473ffffffffffffffffffffffffffffffffffffffff16610fa4565b60065461222a90919063ffffffff16565b61222a90919063ffffffff16565b905090565b610c42611c4a565b73ffffffffffffffffffffffffffffffffffffffff1660008054906101000a900473ffffffffffffffffffffffffffffffffffffffff1673ffffffffffffffffffffffffffffffffffffffff1614610ccf576040517f08c379a0000000000000000000000000000000000000000000000000000000008152600401610cc6906137a8565b60405180910390fd5b601460009054906101000a900473ffffffffffffffffffffffffffffffffffffffff1673ffffffffffffffffffffffffffffffffffffffff16632d48e89683836040518363ffffffff1660e01b8152600401610d2c92919061387d565b600060405180830381600087803b158015610d4657600080fd5b505af1158015610d5a573d6000803e3d6000fd5b505050505050565b60006012905090565b600042905090565b6000610d9f827fffffffffffffffffffffffffffffffffffffffffffffffffffffffffffffffff6107fc565b9050919050565b610dae611c4a565b73ffffffffffffffffffffffffffffffffffffffff1660008054906101000a900473ffffffffffffffffffffffffffffffffffffffff1673ffffffffffffffffffffffffffffffffffffffff1614610e3b576040517f08c379a0000000000000000000000000000000000000000000000000000000008152600401610e32906137a8565b60405180910390fd5b6103e8600654610e4b919061396c565b811015610e8d576040517f08c379a0000000000000000000000000000000000000000000000000000000008152600401610e8490613768565b60405180910390fd5b8060078190555050565b6000600254905090565b610ea9611c4a565b73ffffffffffffffffffffffffffffffffffffffff1660008054906101000a900473ffffffffffffffffffffffffffffffffffffffff1673ffffffffffffffffffffffffffffffffffffffff1614610f36576040517f08c379a0000000000000000000000000000000000000000000000000000000008152600401610f2d906137a8565b60405180910390fd5b80600a60008473ffffffffffffffffffffffffffffffffffffffff1673ffffffffffffffffffffffffffffffffffffffff16815260200190815260200160002060006101000a81548160ff0219169083151502179055505050565b601660009054906101000a900460ff1681565b6000600860008373ffffffffffffffffffffffffffffffffffffffff1673ffffffffffffffffffffffffffffffffffffffff168152602001908152602001600020549050919050565b610ff5611c4a565b73ffffffffffffffffffffffffffffffffffffffff1660008054906101000a900473ffffffffffffffffffffffffffffffffffffffff1673ffffffffffffffffffffffffffffffffffffffff1614611082576040517f08c379a0000000000000000000000000000000000000000000000000000000008152600401611079906137a8565b60405180910390fd5b600073ffffffffffffffffffffffffffffffffffffffff1660008054906101000a900473ffffffffffffffffffffffffffffffffffffffff1673ffffffffffffffffffffffffffffffffffffffff167f8be0079c531659141344cd1fd0a4f28419497f9722a3daafe3b4186f6b6457e060405160405180910390a360008060006101000a81548173ffffffffffffffffffffffffffffffffffffffff021916908373ffffffffffffffffffffffffffffffffffffffff160217905550565b60075481565b6000611150611155565b905090565b60008060009054906101000a900473ffffffffffffffffffffffffffffffffffffffff16905090565b60606040518060400160405280600381526020017f5034430000000000000000000000000000000000000000000000000000000000815250905090565b6111c3611c4a565b73ffffffffffffffffffffffffffffffffffffffff1660008054906101000a900473ffffffffffffffffffffffffffffffffffffffff1673ffffffffffffffffffffffffffffffffffffffff1614611250576040517f08c379a0000000000000000000000000000000000000000000000000000000008152600401611247906137a8565b60405180910390fd5b620b71b0811061125f57600080fd5b8060158190555050565b3373ffffffffffffffffffffffffffffffffffffffff16600160009054906101000a900473ffffffffffffffffffffffffffffffffffffffff1673ffffffffffffffffffffffffffffffffffffffff16146112f9576040517f08c379a00000000000000000000000000000000000000000000000000000000081526004016112f0906137e8565b60405180910390fd5b600254421161133d576040517f08c379a0000000000000000000000000000000000000000000000000000000008152600401611334906137c8565b60405180910390fd5b600160009054906101000a900473ffffffffffffffffffffffffffffffffffffffff1673ffffffffffffffffffffffffffffffffffffffff1660008054906101000a900473ffffffffffffffffffffffffffffffffffffffff1673ffffffffffffffffffffffffffffffffffffffff167f8be0079c531659141344cd1fd0a4f28419497f9722a3daafe3b4186f6b6457e060405160405180910390a3600160009054906101000a900473ffffffffffffffffffffffffffffffffffffffff166000806101000a81548173ffffffffffffffffffffffffffffffffffffffff021916908373ffffffffffffffffffffffffffffffffffffffff160217905550565b601360009054906101000a900473ffffffffffffffffffffffffffffffffffffffff1681565b6000611470338484611d14565b905092915050565b601460009054906101000a900473ffffffffffffffffffffffffffffffffffffffff1681565b6114a6611c4a565b73ffffffffffffffffffffffffffffffffffffffff1660008054906101000a900473ffffffffffffffffffffffffffffffffffffffff1673ffffffffffffffffffffffffffffffffffffffff1614611533576040517f08c379a000000000000000000000000000000000000000000000000000000000815260040161152a906137a8565b60405180910390fd5b60008054906101000a900473ffffffffffffffffffffffffffffffffffffffff16600160006101000a81548173ffffffffffffffffffffffffffffffffffffffff021916908373ffffffffffffffffffffffffffffffffffffffff16021790555060008060006101000a81548173ffffffffffffffffffffffffffffffffffffffff021916908373ffffffffffffffffffffffffffffffffffffffff16021790555080426115e19190613916565b600281905550600073ffffffffffffffffffffffffffffffffffffffff1660008054906101000a900473ffffffffffffffffffffffffffffffffffffffff1673ffffffffffffffffffffffffffffffffffffffff167f8be0079c531659141344cd1fd0a4f28419497f9722a3daafe3b4186f6b6457e060405160405180910390a350565b6000600960008473ffffffffffffffffffffffffffffffffffffffff1673ffffffffffffffffffffffffffffffffffffffff16815260200190815260200160002060008373ffffffffffffffffffffffffffffffffffffffff1673ffffffffffffffffffffffffffffffffffffffff16815260200190815260200160002054905092915050565b6116f4611c4a565b73ffffffffffffffffffffffffffffffffffffffff1660008054906101000a900473ffffffffffffffffffffffffffffffffffffffff1673ffffffffffffffffffffffffffffffffffffffff1614611781576040517f08c379a0000000000000000000000000000000000000000000000000000000008152600401611778906137a8565b60405180910390fd5b81601660006101000a81548160ff021916908315150217905550806017819055505050565b6117ae611c4a565b73ffffffffffffffffffffffffffffffffffffffff1660008054906101000a900473ffffffffffffffffffffffffffffffffffffffff1673ffffffffffffffffffffffffffffffffffffffff161461183b576040517f08c379a0000000000000000000000000000000000000000000000000000000008152600401611832906137a8565b60405180910390fd5b61184481612274565b50565b61184f611c4a565b73ffffffffffffffffffffffffffffffffffffffff1660008054906101000a900473ffffffffffffffffffffffffffffffffffffffff1673ffffffffffffffffffffffffffffffffffffffff16146118dc576040517f08c379a00000000000000000000000000000000000000000000000000000000081526004016118d3906137a8565b60405180910390fd5b3073ffffffffffffffffffffffffffffffffffffffff168273ffffffffffffffffffffffffffffffffffffffff16141580156119665750601360009054906101000a900473ffffffffffffffffffffffffffffffffffffffff1673ffffffffffffffffffffffffffffffffffffffff168273ffffffffffffffffffffffffffffffffffffffff1614155b61196f57600080fd5b80600c60008473ffffffffffffffffffffffffffffffffffffffff1673ffffffffffffffffffffffffffffffffffffffff16815260200190815260200160002060006101000a81548160ff0219169083151502179055508015611a6157601460009054906101000a900473ffffffffffffffffffffffffffffffffffffffff1673ffffffffffffffffffffffffffffffffffffffff166314b6ca968360006040518363ffffffff1660e01b8152600401611a2a9291906135e3565b600060405180830381600087803b158015611a4457600080fd5b505af1158015611a58573d6000803e3d6000fd5b50505050611b30565b601460009054906101000a900473ffffffffffffffffffffffffffffffffffffffff1673ffffffffffffffffffffffffffffffffffffffff166314b6ca9683600860008673ffffffffffffffffffffffffffffffffffffffff1673ffffffffffffffffffffffffffffffffffffffff168152602001908152602001600020546040518363ffffffff1660e01b8152600401611afd92919061360c565b600060405180830381600087803b158015611b1757600080fd5b505af1158015611b2b573d6000803e3d6000fd5b505050505b5050565b611b3c611c4a565b73ffffffffffffffffffffffffffffffffffffffff1660008054906101000a900473ffffffffffffffffffffffffffffffffffffffff1673ffffffffffffffffffffffffffffffffffffffff1614611bc9576040517f08c379a0000000000000000000000000000000000000000000000000000000008152600401611bc0906137a8565b60405180910390fd5b80600b60008473ffffffffffffffffffffffffffffffffffffffff1673ffffffffffffffffffffffffffffffffffffffff16815260200190815260200160002060006101000a81548160ff0219169083151502179055505050565b601260009054906101000a900473ffffffffffffffffffffffffffffffffffffffff1681565b600033905090565b6000808284611c619190613916565b905083811015611ca6576040517f08c379a0000000000000000000000000000000000000000000000000000000008152600401611c9d90613748565b60405180910390fd5b8091505092915050565b6000838311158290611cf8576040517f08c379a0000000000000000000000000000000000000000000000000000000008152600401611cef9190613686565b60405180910390fd5b5060008385611d0791906139f7565b9050809150509392505050565b6000601860009054906101000a900460ff1615611d3d57611d368484846123a1565b9050612223565b611d478483612574565b611d4f612611565b15611d5d57611d5c6126e8565b5b611de6826040518060400160405280601481526020017f496e73756666696369656e742042616c616e6365000000000000000000000000815250600860008873ffffffffffffffffffffffffffffffffffffffff1673ffffffffffffffffffffffffffffffffffffffff16815260200190815260200160002054611cb09092919063ffffffff16565b600860008673ffffffffffffffffffffffffffffffffffffffff1673ffffffffffffffffffffffffffffffffffffffff168152602001908152602001600020819055506000611e3485612b6a565b611e3e5782611e49565b611e488584612bc1565b5b9050611e9d81600860008773ffffffffffffffffffffffffffffffffffffffff1673ffffffffffffffffffffffffffffffffffffffff16815260200190815260200160002054611c5290919063ffffffff16565b600860008673ffffffffffffffffffffffffffffffffffffffff1673ffffffffffffffffffffffffffffffffffffffff16815260200190815260200160002081905550600c60008673ffffffffffffffffffffffffffffffffffffffff1673ffffffffffffffffffffffffffffffffffffffff16815260200190815260200160002060009054906101000a900460ff1661200357601460009054906101000a900473ffffffffffffffffffffffffffffffffffffffff1673ffffffffffffffffffffffffffffffffffffffff166314b6ca9686600860008973ffffffffffffffffffffffffffffffffffffffff1673ffffffffffffffffffffffffffffffffffffffff168152602001908152602001600020546040518363ffffffff1660e01b8152600401611fcd92919061360c565b600060405180830381600087803b158015611fe757600080fd5b505af1925050508015611ff8575060015b61200157612002565b5b5b600c60008573ffffffffffffffffffffffffffffffffffffffff1673ffffffffffffffffffffffffffffffffffffffff16815260200190815260200160002060009054906101000a900460ff1661212657601460009054906101000a900473ffffffffffffffffffffffffffffffffffffffff1673ffffffffffffffffffffffffffffffffffffffff166314b6ca9685600860008873ffffffffffffffffffffffffffffffffffffffff1673ffffffffffffffffffffffffffffffffffffffff168152602001908152602001600020546040518363ffffffff1660e01b81526004016120f092919061360c565b600060405180830381600087803b15801561210a57600080fd5b505af192505050801561211b575060015b61212457612125565b5b5b601460009054906101000a900473ffffffffffffffffffffffffffffffffffffffff1673ffffffffffffffffffffffffffffffffffffffff1663ffb2c4796015546040518263ffffffff1660e01b81526004016121839190613808565b600060405180830381600087803b15801561219d57600080fd5b505af19250505080156121ae575060015b6121b7576121b8565b5b8373ffffffffffffffffffffffffffffffffffffffff168573ffffffffffffffffffffffffffffffffffffffff167fddf252ad1be2c89b69c2b068fc378daa952ba7f163c4a11628f55a4df523b3ef836040516122159190613808565b60405180910390a360019150505b9392505050565b600061226c83836040518060400160405280601e81526020017f536166654d6174683a207375627472616374696f6e206f766572666c6f770000815250611cb0565b905092915050565b600073ffffffffffffffffffffffffffffffffffffffff168173ffffffffffffffffffffffffffffffffffffffff1614156122e4576040517f08c379a00000000000000000000000000000000000000000000000000000000081526004016122db90613728565b60405180910390fd5b8073ffffffffffffffffffffffffffffffffffffffff1660008054906101000a900473ffffffffffffffffffffffffffffffffffffffff1673ffffffffffffffffffffffffffffffffffffffff167f8be0079c531659141344cd1fd0a4f28419497f9722a3daafe3b4186f6b6457e060405160405180910390a3806000806101000a81548173ffffffffffffffffffffffffffffffffffffffff021916908373ffffffffffffffffffffffffffffffffffffffff16021790555050565b600061242c826040518060400160405280601481526020017f496e73756666696369656e742042616c616e6365000000000000000000000000815250600860008873ffffffffffffffffffffffffffffffffffffffff1673ffffffffffffffffffffffffffffffffffffffff16815260200190815260200160002054611cb09092919063ffffffff16565b600860008673ffffffffffffffffffffffffffffffffffffffff1673ffffffffffffffffffffffffffffffffffffffff168152602001908152602001600020819055506124c182600860008673ffffffffffffffffffffffffffffffffffffffff1673ffffffffffffffffffffffffffffffffffffffff16815260200190815260200160002054611c5290919063ffffffff16565b600860008573ffffffffffffffffffffffffffffffffffffffff1673ffffffffffffffffffffffffffffffffffffffff168152602001908152602001600020819055508273ffffffffffffffffffffffffffffffffffffffff168473ffffffffffffffffffffffffffffffffffffffff167fddf252ad1be2c89b69c2b068fc378daa952ba7f163c4a11628f55a4df523b3ef846040516125619190613808565b60405180910390a3600190509392505050565b600754811115806125ce5750600b60008373ffffffffffffffffffffffffffffffffffffffff1673ffffffffffffffffffffffffffffffffffffffff16815260200190815260200160002060009054906101000a900460ff165b61260d576040517f08c379a000000000000000000000000000000000000000000000000000000000815260040161260490613708565b60405180910390fd5b5050565b6000601360009054906101000a900473ffffffffffffffffffffffffffffffffffffffff1673ffffffffffffffffffffffffffffffffffffffff163373ffffffffffffffffffffffffffffffffffffffff161415801561267e5750601860009054906101000a900460ff16155b80156126965750601660009054906101000a900460ff165b80156126e35750601754600860003073ffffffffffffffffffffffffffffffffffffffff1673ffffffffffffffffffffffffffffffffffffffff1681526020019081526020016000205410155b905090565b6001601860006101000a81548160ff021916908315150217905550600060175490506000612762600f54600e54600d546127229190613916565b61272c9190613916565b6127546127456002600e54612eb690919063ffffffff16565b85612f0090919063ffffffff16565b612eb690919063ffffffff16565b9050612777818361222a90919063ffffffff16565b91506000600267ffffffffffffffff8111156127bc577f4e487b7100000000000000000000000000000000000000000000000000000000600052604160045260246000fd5b6040519080825280602002602001820160405280156127ea5781602001602082028036833780820191505090505b5090503081600081518110612828577f4e487b7100000000000000000000000000000000000000000000000000000000600052603260045260246000fd5b602002602001019073ffffffffffffffffffffffffffffffffffffffff16908173ffffffffffffffffffffffffffffffffffffffff1681525050600360009054906101000a900473ffffffffffffffffffffffffffffffffffffffff16816001815181106128bf577f4e487b7100000000000000000000000000000000000000000000000000000000600052603260045260246000fd5b602002602001019073ffffffffffffffffffffffffffffffffffffffff16908173ffffffffffffffffffffffffffffffffffffffff16815250506000479050601260009054906101000a900473ffffffffffffffffffffffffffffffffffffffff1673ffffffffffffffffffffffffffffffffffffffff1663791ac9478560008530426040518663ffffffff1660e01b8152600401612962959493929190613823565b600060405180830381600087803b15801561297c57600080fd5b505af1158015612990573d6000803e3d6000fd5b5050505060006129a9824761222a90919063ffffffff16565b905060006129fd6129da6129c96002600e54612eb690919063ffffffff16565b60105461222a90919063ffffffff16565b6129ef600d5485612f0090919063ffffffff16565b612eb690919063ffffffff16565b90506000612a51612a2e612a1d6002600e54612eb690919063ffffffff16565b60105461222a90919063ffffffff16565b612a43600f5486612f0090919063ffffffff16565b612eb690919063ffffffff16565b90506000612a7a82612a6c858761222a90919063ffffffff16565b61222a90919063ffffffff16565b9050601460009054906101000a900473ffffffffffffffffffffffffffffffffffffffff1673ffffffffffffffffffffffffffffffffffffffff1663d0e30db0846040518263ffffffff1660e01b81526004016000604051808303818588803b158015612ae657600080fd5b505af193505050508015612af8575060015b612b0157612b02565b5b6000871115612b45577f424db2872186fa7e7afa7a5e902ed3b49a2ef19c2f5431e672462495dd6b45068188604051612b3c92919061387d565b60405180910390a15b50505050505050506000601860006101000a81548160ff021916908315150217905550565b6000600a60008373ffffffffffffffffffffffffffffffffffffffff1673ffffffffffffffffffffffffffffffffffffffff16815260200190815260200160002060009054906101000a900460ff16159050919050565b600080612bf96064612beb600e54600d54612bdc9190613916565b86612f0090919063ffffffff16565b612eb690919063ffffffff16565b90506000612c256064612c17600f5487612f0090919063ffffffff16565b612eb690919063ffffffff16565b9050612c7982600860003073ffffffffffffffffffffffffffffffffffffffff1673ffffffffffffffffffffffffffffffffffffffff16815260200190815260200160002054611c5290919063ffffffff16565b600860003073ffffffffffffffffffffffffffffffffffffffff1673ffffffffffffffffffffffffffffffffffffffff168152602001908152602001600020819055503073ffffffffffffffffffffffffffffffffffffffff168573ffffffffffffffffffffffffffffffffffffffff167fddf252ad1be2c89b69c2b068fc378daa952ba7f163c4a11628f55a4df523b3ef84604051612d199190613808565b60405180910390a3612d606040518060400160405280601381526020017f746f207472616e7366657220646561643d25730000000000000000000000000081525082612f7b565b612d9f6040518060400160405280600781526020017f66726f6d3d25730000000000000000000000000000000000000000000000000081525086613017565b612e006040518060400160405280601081526020017f646561642061646464726573733d257300000000000000000000000000000000815250600460009054906101000a900473ffffffffffffffffffffffffffffffffffffffff16613017565b600460009054906101000a900473ffffffffffffffffffffffffffffffffffffffff1673ffffffffffffffffffffffffffffffffffffffff168573ffffffffffffffffffffffffffffffffffffffff167fddf252ad1be2c89b69c2b068fc378daa952ba7f163c4a11628f55a4df523b3ef83604051612e7f9190613808565b60405180910390a3612eac81612e9e848761222a90919063ffffffff16565b61222a90919063ffffffff16565b9250505092915050565b6000612ef883836040518060400160405280601a81526020017f536166654d6174683a206469766973696f6e206279207a65726f0000000000008152506130b3565b905092915050565b600080831415612f135760009050612f75565b60008284612f21919061399d565b9050828482612f30919061396c565b14612f70576040517f08c379a0000000000000000000000000000000000000000000000000000000008152600401612f6790613788565b60405180910390fd5b809150505b92915050565b6130138282604051602401612f919291906136d8565b6040516020818303038152906040527f9710a9d0000000000000000000000000000000000000000000000000000000007bffffffffffffffffffffffffffffffffffffffffffffffffffffffff19166020820180517bffffffffffffffffffffffffffffffffffffffffffffffffffffffff8381831617835250505050613116565b5050565b6130af828260405160240161302d9291906136a8565b6040516020818303038152906040527f319af333000000000000000000000000000000000000000000000000000000007bffffffffffffffffffffffffffffffffffffffffffffffffffffffff19166020820180517bffffffffffffffffffffffffffffffffffffffffffffffffffffffff8381831617835250505050613116565b5050565b600080831182906130fa576040517f08c379a00000000000000000000000000000000000000000000000000000000081526004016130f19190613686565b60405180910390fd5b5060008385613109919061396c565b9050809150509392505050565b60008151905060006a636f6e736f6c652e6c6f679050602083016000808483855afa5050505050565b60008135905061314e81613d48565b92915050565b60008135905061316381613d5f565b92915050565b60008135905061317881613d76565b92915050565b60008135905061318d81613d8d565b92915050565b6000602082840312156131a557600080fd5b60006131b38482850161313f565b91505092915050565b6000602082840312156131ce57600080fd5b60006131dc84828501613154565b91505092915050565b600080604083850312156131f857600080fd5b60006132068582860161313f565b92505060206132178582860161313f565b9150509250929050565b60008060006060848603121561323657600080fd5b60006132448682870161313f565b93505060206132558682870161313f565b92505060406132668682870161317e565b9150509250925092565b6000806040838503121561328357600080fd5b60006132918582860161313f565b92505060206132a285828601613169565b9150509250929050565b600080604083850312156132bf57600080fd5b60006132cd8582860161313f565b92505060206132de8582860161317e565b9150509250929050565b600080604083850312156132fb57600080fd5b600061330985828601613169565b925050602061331a8582860161317e565b9150509250929050565b60006020828403121561333657600080fd5b60006133448482850161317e565b91505092915050565b6000806040838503121561336057600080fd5b600061336e8582860161317e565b925050602061337f8582860161317e565b9150509250929050565b600061339583836133a1565b60208301905092915050565b6133aa81613a2b565b82525050565b6133b981613a2b565b82525050565b60006133ca826138d1565b6133d481856138f4565b93506133df836138c1565b8060005b838110156134105781516133f78882613389565b9750613402836138e7565b9250506001810190506133e3565b5085935050505092915050565b61342681613a4f565b82525050565b61343581613a92565b82525050565b61344481613ab6565b82525050565b61345381613ada565b82525050565b6000613464826138dc565b61346e8185613905565b935061347e818560208601613aec565b61348781613b7d565b840191505092915050565b600061349f601183613905565b91506134aa82613b8e565b602082019050919050565b60006134c2602683613905565b91506134cd82613bb7565b604082019050919050565b60006134e5601b83613905565b91506134f082613c06565b602082019050919050565b6000613508601a83613905565b915061351382613c2f565b602082019050919050565b600061352b602183613905565b915061353682613c58565b604082019050919050565b600061354e602083613905565b915061355982613ca7565b602082019050919050565b6000613571601f83613905565b915061357c82613cd0565b602082019050919050565b6000613594602383613905565b915061359f82613cf9565b604082019050919050565b6135b381613a7b565b82525050565b6135c281613a85565b82525050565b60006020820190506135dd60008301846133b0565b92915050565b60006040820190506135f860008301856133b0565b613605602083018461344a565b9392505050565b600060408201905061362160008301856133b0565b61362e60208301846135aa565b9392505050565b600060208201905061364a600083018461341d565b92915050565b6000602082019050613665600083018461342c565b92915050565b6000602082019050613680600083018461343b565b92915050565b600060208201905081810360008301526136a08184613459565b905092915050565b600060408201905081810360008301526136c28185613459565b90506136d160208301846133b0565b9392505050565b600060408201905081810360008301526136f28185613459565b905061370160208301846135aa565b9392505050565b6000602082019050818103600083015261372181613492565b9050919050565b60006020820190508181036000830152613741816134b5565b9050919050565b60006020820190508181036000830152613761816134d8565b9050919050565b60006020820190508181036000830152613781816134fb565b9050919050565b600060208201905081810360008301526137a18161351e565b9050919050565b600060208201905081810360008301526137c181613541565b9050919050565b600060208201905081810360008301526137e181613564565b9050919050565b6000602082019050818103600083015261380181613587565b9050919050565b600060208201905061381d60008301846135aa565b92915050565b600060a08201905061383860008301886135aa565b613845602083018761344a565b818103604083015261385781866133bf565b905061386660608301856133b0565b61387360808301846135aa565b9695505050505050565b600060408201905061389260008301856135aa565b61389f60208301846135aa565b9392505050565b60006020820190506138bb60008301846135b9565b92915050565b6000819050602082019050919050565b600081519050919050565b600081519050919050565b6000602082019050919050565b600082825260208201905092915050565b600082825260208201905092915050565b600061392182613a7b565b915061392c83613a7b565b9250827fffffffffffffffffffffffffffffffffffffffffffffffffffffffffffffffff0382111561396157613960613b1f565b5b828201905092915050565b600061397782613a7b565b915061398283613a7b565b92508261399257613991613b4e565b5b828204905092915050565b60006139a882613a7b565b91506139b383613a7b565b9250817fffffffffffffffffffffffffffffffffffffffffffffffffffffffffffffffff04831182151516156139ec576139eb613b1f565b5b828202905092915050565b6000613a0282613a7b565b9150613a0d83613a7b565b925082821015613a2057613a1f613b1f565b5b828203905092915050565b6000613a3682613a5b565b9050919050565b6000613a4882613a5b565b9050919050565b60008115159050919050565b600073ffffffffffffffffffffffffffffffffffffffff82169050919050565b6000819050919050565b600060ff82169050919050565b6000613a9d82613aa4565b9050919050565b6000613aaf82613a5b565b9050919050565b6000613ac182613ac8565b9050919050565b6000613ad382613a5b565b9050919050565b6000613ae582613a7b565b9050919050565b60005b83811015613b0a578082015181840152602081019050613aef565b83811115613b19576000848401525b50505050565b7f4e487b7100000000000000000000000000000000000000000000000000000000600052601160045260246000fd5b7f4e487b7100000000000000000000000000000000000000000000000000000000600052601260045260246000fd5b6000601f19601f8301169050919050565b7f5458204c696d6974204578636565646564000000000000000000000000000000600082015250565b7f4f776e61626c653a206e6577206f776e657220697320746865207a65726f206160008201527f6464726573730000000000000000000000000000000000000000000000000000602082015250565b7f536166654d6174683a206164646974696f6e206f766572666c6f770000000000600082015250565b7f436865636b206d696e696d756d204d6178547820616d6f756e74000000000000600082015250565b7f536166654d6174683a206d756c7469706c69636174696f6e206f766572666c6f60008201527f7700000000000000000000000000000000000000000000000000000000000000602082015250565b7f4f776e61626c653a2063616c6c6572206973206e6f7420746865206f776e6572600082015250565b7f436f6e7472616374206973206c6f636b656420756e74696c2037206461797300600082015250565b7f596f7520646f6e27742068617665207065726d697373696f6e20746f20756e6c60008201527f6f636b0000000000000000000000000000000000000000000000000000000000602082015250565b613d5181613a2b565b8114613d5c57600080fd5b50565b613d6881613a3d565b8114613d7357600080fd5b50565b613d7f81613a4f565b8114613d8a57600080fd5b50565b613d9681613a7b565b8114613da157600080fd5b5056fea2646970667358221220e256a2154f9ffd075941527666d72ae9cebfa48cdb3ea7928c0e0ffbbfa6b9b664736f6c63430008040033608060405273c02aaa39b223fe8d0a0e5c4f27ead9083c756cc2600160006101000a81548173ffffffffffffffffffffffffffffffffffffffff021916908373ffffffffffffffffffffffffffffffffffffffff1602179055506ec097ce7bc90715b34b9f1000000000600b55610e10600c55670de0b6b3a7640000600d553480156200008b57600080fd5b5060405162001aac38038062001aac8339818101604052810190620000b19190620001a2565b600073ffffffffffffffffffffffffffffffffffffffff168173ffffffffffffffffffffffffffffffffffffffff1614156200010257737a250d5630b4cf539739df2c5dacb4c659f2488d62000104565b805b600260006101000a81548173ffffffffffffffffffffffffffffffffffffffff021916908373ffffffffffffffffffffffffffffffffffffffff160217905550336000806101000a81548173ffffffffffffffffffffffffffffffffffffffff021916908373ffffffffffffffffffffffffffffffffffffffff160217905550506200021c565b6000815190506200019c8162000202565b92915050565b600060208284031215620001b557600080fd5b6000620001c5848285016200018b565b91505092915050565b6000620001db82620001e2565b9050919050565b600073ffffffffffffffffffffffffffffffffffffffff82169050919050565b6200020d81620001ce565b81146200021957600080fd5b50565b611880806200022c6000396000f3fe6080604052600436106100e15760003560e01c8063ce7c2ac21161007f578063efca2eed11610059578063efca2eed146102a5578063f0fc6bca146102d0578063ffb2c479146102e7578063ffd49c8414610310576100f0565b8063ce7c2ac214610230578063d0e30db014610270578063e2d2e2191461027a576100f0565b80632d48e896116100bb5780632d48e896146101865780633a98ef39146101af5780634fab0ae8146101da578063997664d714610205576100f0565b806311ce023d146100f557806314b6ca961461012057806328fd319814610149576100f0565b366100f0576100ee61033b565b005b600080fd5b34801561010157600080fd5b5061010a6103ad565b60405161011791906114de565b60405180910390f35b34801561012c57600080fd5b5061014760048036038101906101429190611315565b6103b3565b005b34801561015557600080fd5b50610170600480360381019061016b91906112ec565b610672565b60405161017d91906114de565b60405180910390f35b34801561019257600080fd5b506101ad60048036038101906101a8919061137a565b61078c565b005b3480156101bb57600080fd5b506101c46107f6565b6040516101d191906114de565b60405180910390f35b3480156101e657600080fd5b506101ef6107fc565b6040516101fc91906114de565b60405180910390f35b34801561021157600080fd5b5061021a610802565b60405161022791906114de565b60405180910390f35b34801561023c57600080fd5b50610257600480360381019061025291906112ec565b610808565b60405161026794939291906114f9565b60405180910390f35b61027861033b565b005b34801561028657600080fd5b5061028f610838565b60405161029c91906114de565b60405180910390f35b3480156102b157600080fd5b506102ba61083e565b6040516102c791906114de565b60405180910390f35b3480156102dc57600080fd5b506102e5610844565b005b3480156102f357600080fd5b5061030e60048036038101906103099190611351565b61084f565b005b34801561031c57600080fd5b50610325610a2f565b60405161033291906114de565b60405180910390f35b600034905061035581600854610a3590919063ffffffff16565b600881905550600060075411156103aa576103a361039260075461038484600b54610a9390919063ffffffff16565b610b0e90919063ffffffff16565b600a54610a3590919063ffffffff16565b600a819055505b50565b600b5481565b60008054906101000a900473ffffffffffffffffffffffffffffffffffffffff1673ffffffffffffffffffffffffffffffffffffffff163373ffffffffffffffffffffffffffffffffffffffff161461040b57600080fd5b6000600660008473ffffffffffffffffffffffffffffffffffffffff1673ffffffffffffffffffffffffffffffffffffffff1681526020019081526020016000206000015411156104605761045f82610b58565b5b6000811180156104b257506000600660008473ffffffffffffffffffffffffffffffffffffffff1673ffffffffffffffffffffffffffffffffffffffff16815260200190815260200160002060000154145b156104c5576104c082610dc4565b610527565b60008114801561051757506000600660008473ffffffffffffffffffffffffffffffffffffffff1673ffffffffffffffffffffffffffffffffffffffff16815260200190815260200160002060000154115b156105265761052582610e73565b5b5b61059081610582600660008673ffffffffffffffffffffffffffffffffffffffff1673ffffffffffffffffffffffffffffffffffffffff1681526020019081526020016000206000015460075461111290919063ffffffff16565b610a3590919063ffffffff16565b60078190555080600660008473ffffffffffffffffffffffffffffffffffffffff1673ffffffffffffffffffffffffffffffffffffffff16815260200190815260200160002060000181905550610628600660008473ffffffffffffffffffffffffffffffffffffffff1673ffffffffffffffffffffffffffffffffffffffff1681526020019081526020016000206000015461115c565b600660008473ffffffffffffffffffffffffffffffffffffffff1673ffffffffffffffffffffffffffffffffffffffff168152602001908152602001600020600101819055505050565b600080600660008473ffffffffffffffffffffffffffffffffffffffff1673ffffffffffffffffffffffffffffffffffffffff1681526020019081526020016000206000015414156106c75760009050610787565b6000610714600660008573ffffffffffffffffffffffffffffffffffffffff1673ffffffffffffffffffffffffffffffffffffffff1681526020019081526020016000206000015461115c565b90506000600660008573ffffffffffffffffffffffffffffffffffffffff1673ffffffffffffffffffffffffffffffffffffffff16815260200190815260200160002060010154905080821161076f57600092505050610787565b610782818361111290919063ffffffff16565b925050505b919050565b60008054906101000a900473ffffffffffffffffffffffffffffffffffffffff1673ffffffffffffffffffffffffffffffffffffffff163373ffffffffffffffffffffffffffffffffffffffff16146107e457600080fd5b81600c8190555080600d819055505050565b60075481565b600d5481565b60085481565b60066020528060005260406000206000915090508060000154908060010154908060020154908060030154905084565b600a5481565b60095481565b61084d33610b58565b565b60008054906101000a900473ffffffffffffffffffffffffffffffffffffffff1673ffffffffffffffffffffffffffffffffffffffff163373ffffffffffffffffffffffffffffffffffffffff16146108a757600080fd5b6000600380549050905060008114156108c05750610a2c565b6000805a905060005b84831080156108d757508381105b15610a275783600e54106108ee576000600e819055505b61095d6003600e548154811061092d577f4e487b7100000000000000000000000000000000000000000000000000000000600052603260045260246000fd5b9060005260206000200160009054906101000a900473ffffffffffffffffffffffffffffffffffffffff1661118e565b156109d2576109d16003600e54815481106109a1577f4e487b7100000000000000000000000000000000000000000000000000000000600052603260045260246000fd5b9060005260206000200160009054906101000a900473ffffffffffffffffffffffffffffffffffffffff16610b58565b5b6109f76109e85a8461111290919063ffffffff16565b84610a3590919063ffffffff16565b92505a9150600e6000815480929190610a0f906116e9565b91905055508080610a1f906116e9565b9150506108c9565b505050505b50565b600c5481565b6000808284610a449190611565565b905083811015610a89576040517f08c379a0000000000000000000000000000000000000000000000000000000008152600401610a809061149e565b60405180910390fd5b8091505092915050565b600080831415610aa65760009050610b08565b60008284610ab491906115ec565b9050828482610ac391906115bb565b14610b03576040517f08c379a0000000000000000000000000000000000000000000000000000000008152600401610afa906114be565b60405180910390fd5b809150505b92915050565b6000610b5083836040518060400160405280601a81526020017f536166654d6174683a206469766973696f6e206279207a65726f0000000000008152506111fb565b905092915050565b6000600660008373ffffffffffffffffffffffffffffffffffffffff1673ffffffffffffffffffffffffffffffffffffffff168152602001908152602001600020600001541415610ba857610dc1565b6000610bb382610672565b90506000811115610dbf57610bd381600954610a3590919063ffffffff16565b6009819055506000808373ffffffffffffffffffffffffffffffffffffffff168361753090604051610c0490611467565b600060405180830381858888f193505050503d8060008114610c42576040519150601f19603f3d011682016040523d82523d6000602084013e610c47565b606091505b509150915042600560008673ffffffffffffffffffffffffffffffffffffffff1673ffffffffffffffffffffffffffffffffffffffff16815260200190815260200160002081905550610ce583600660008773ffffffffffffffffffffffffffffffffffffffff1673ffffffffffffffffffffffffffffffffffffffff16815260200190815260200160002060020154610a3590919063ffffffff16565b600660008673ffffffffffffffffffffffffffffffffffffffff1673ffffffffffffffffffffffffffffffffffffffff16815260200190815260200160002060020181905550610d76600660008673ffffffffffffffffffffffffffffffffffffffff1673ffffffffffffffffffffffffffffffffffffffff1681526020019081526020016000206000015461115c565b600660008673ffffffffffffffffffffffffffffffffffffffff1673ffffffffffffffffffffffffffffffffffffffff1681526020019081526020016000206001018190555050505b505b50565b600380549050600460008373ffffffffffffffffffffffffffffffffffffffff1673ffffffffffffffffffffffffffffffffffffffff168152602001908152602001600020819055506003819080600181540180825580915050600190039060005260206000200160009091909190916101000a81548173ffffffffffffffffffffffffffffffffffffffff021916908373ffffffffffffffffffffffffffffffffffffffff16021790555050565b60036001600380549050610e879190611646565b81548110610ebe577f4e487b7100000000000000000000000000000000000000000000000000000000600052603260045260246000fd5b9060005260206000200160009054906101000a900473ffffffffffffffffffffffffffffffffffffffff166003600460008473ffffffffffffffffffffffffffffffffffffffff1673ffffffffffffffffffffffffffffffffffffffff1681526020019081526020016000205481548110610f62577f4e487b7100000000000000000000000000000000000000000000000000000000600052603260045260246000fd5b9060005260206000200160006101000a81548173ffffffffffffffffffffffffffffffffffffffff021916908373ffffffffffffffffffffffffffffffffffffffff160217905550600460008273ffffffffffffffffffffffffffffffffffffffff1673ffffffffffffffffffffffffffffffffffffffff1681526020019081526020016000205460046000600360016003805490506110029190611646565b81548110611039577f4e487b7100000000000000000000000000000000000000000000000000000000600052603260045260246000fd5b9060005260206000200160009054906101000a900473ffffffffffffffffffffffffffffffffffffffff1673ffffffffffffffffffffffffffffffffffffffff1673ffffffffffffffffffffffffffffffffffffffff1681526020019081526020016000208190555060038054806110da577f4e487b7100000000000000000000000000000000000000000000000000000000600052603160045260246000fd5b6001900381819060005260206000200160006101000a81549073ffffffffffffffffffffffffffffffffffffffff0219169055905550565b600061115483836040518060400160405280601e81526020017f536166654d6174683a207375627472616374696f6e206f766572666c6f77000081525061125e565b905092915050565b6000611187600b54611179600a5485610a9390919063ffffffff16565b610b0e90919063ffffffff16565b9050919050565b600042600c54600560008573ffffffffffffffffffffffffffffffffffffffff1673ffffffffffffffffffffffffffffffffffffffff168152602001908152602001600020546111de9190611565565b1080156111f45750600d546111f283610672565b115b9050919050565b60008083118290611242576040517f08c379a0000000000000000000000000000000000000000000000000000000008152600401611239919061147c565b60405180910390fd5b506000838561125191906115bb565b9050809150509392505050565b60008383111582906112a6576040517f08c379a000000000000000000000000000000000000000000000000000000000815260040161129d919061147c565b60405180910390fd5b50600083856112b59190611646565b9050809150509392505050565b6000813590506112d18161181c565b92915050565b6000813590506112e681611833565b92915050565b6000602082840312156112fe57600080fd5b600061130c848285016112c2565b91505092915050565b6000806040838503121561132857600080fd5b6000611336858286016112c2565b9250506020611347858286016112d7565b9150509250929050565b60006020828403121561136357600080fd5b6000611371848285016112d7565b91505092915050565b6000806040838503121561138d57600080fd5b600061139b858286016112d7565b92505060206113ac858286016112d7565b9150509250929050565b60006113c18261153e565b6113cb8185611554565b93506113db8185602086016116b6565b6113e481611790565b840191505092915050565b60006113fc601b83611554565b9150611407826117a1565b602082019050919050565b600061141f602183611554565b915061142a826117ca565b604082019050919050565b6000611442600083611549565b915061144d82611819565b600082019050919050565b611461816116ac565b82525050565b600061147282611435565b9150819050919050565b6000602082019050818103600083015261149681846113b6565b905092915050565b600060208201905081810360008301526114b7816113ef565b9050919050565b600060208201905081810360008301526114d781611412565b9050919050565b60006020820190506114f36000830184611458565b92915050565b600060808201905061150e6000830187611458565b61151b6020830186611458565b6115286040830185611458565b6115356060830184611458565b95945050505050565b600081519050919050565b600081905092915050565b600082825260208201905092915050565b6000611570826116ac565b915061157b836116ac565b9250827fffffffffffffffffffffffffffffffffffffffffffffffffffffffffffffffff038211156115b0576115af611732565b5b828201905092915050565b60006115c6826116ac565b91506115d1836116ac565b9250826115e1576115e0611761565b5b828204905092915050565b60006115f7826116ac565b9150611602836116ac565b9250817fffffffffffffffffffffffffffffffffffffffffffffffffffffffffffffffff048311821515161561163b5761163a611732565b5b828202905092915050565b6000611651826116ac565b915061165c836116ac565b92508282101561166f5761166e611732565b5b828203905092915050565b60006116858261168c565b9050919050565b600073ffffffffffffffffffffffffffffffffffffffff82169050919050565b6000819050919050565b60005b838110156116d45780820151818401526020810190506116b9565b838111156116e3576000848401525b50505050565b60006116f4826116ac565b91507fffffffffffffffffffffffffffffffffffffffffffffffffffffffffffffffff82141561172757611726611732565b5b600182019050919050565b7f4e487b7100000000000000000000000000000000000000000000000000000000600052601160045260246000fd5b7f4e487b7100000000000000000000000000000000000000000000000000000000600052601260045260246000fd5b6000601f19601f8301169050919050565b7f536166654d6174683a206164646974696f6e206f766572666c6f770000000000600082015250565b7f536166654d6174683a206d756c7469706c69636174696f6e206f766572666c6f60008201527f7700000000000000000000000000000000000000000000000000000000000000602082015250565b50565b6118258161167a565b811461183057600080fd5b50565b61183c816116ac565b811461184757600080fd5b5056fea26469706673582212205b760246bda5511b7dba35226e70d954e5db51d3cba9b3207ef03b072d03cd0064736f6c63430008040033",
  "linkReferences": {},
  "deployedLinkReferences": {}
}