{
  "_format": "hh-sol-artifact-1",
  "contractName": "P4C",
  "sourceName": "contracts/P4C.sol",
  "abi": [
    {
      "inputs": [],
      "stateMutability": "nonpayable",
      "type": "constructor"
    },
    {
      "anonymous": false,
      "inputs": [
        {
          "indexed": true,
          "internalType": "address",
          "name": "owner",
          "type": "address"
        },
        {
          "indexed": true,
          "internalType": "address",
          "name": "spender",
          "type": "address"
        },
        {
          "indexed": false,
          "internalType": "uint256",
          "name": "value",
          "type": "uint256"
        }
      ],
      "name": "Approval",
      "type": "event"
    },
    {
      "anonymous": false,
      "inputs": [
        {
          "indexed": false,
          "internalType": "uint256",
          "name": "tokenAmountSent",
          "type": "uint256"
        },
        {
          "indexed": false,
          "internalType": "uint256",
          "name": "ethAmountSent",
          "type": "uint256"
        },
        {
          "indexed": false,
          "internalType": "uint256",
          "name": "liquidity",
          "type": "uint256"
        }
      ],
      "name": "LiquidityAdded",
      "type": "event"
    },
    {
      "anonymous": false,
      "inputs": [
        {
          "indexed": true,
          "internalType": "address",
          "name": "previousManager",
          "type": "address"
        },
        {
          "indexed": true,
          "internalType": "address",
          "name": "newManager",
          "type": "address"
        }
      ],
      "name": "ManagementTransferred",
      "type": "event"
    },
    {
      "anonymous": false,
      "inputs": [
        {
          "indexed": true,
          "internalType": "address",
          "name": "previousOwner",
          "type": "address"
        },
        {
          "indexed": true,
          "internalType": "address",
          "name": "newOwner",
          "type": "address"
        }
      ],
      "name": "OwnershipTransferred",
      "type": "event"
    },
    {
      "anonymous": false,
      "inputs": [
        {
          "indexed": true,
          "internalType": "address",
          "name": "router",
          "type": "address"
        }
      ],
      "name": "RouterSet",
      "type": "event"
    },
    {
      "anonymous": false,
      "inputs": [
        {
          "indexed": false,
          "internalType": "uint256",
          "name": "tokensSwapped",
          "type": "uint256"
        },
        {
          "indexed": false,
          "internalType": "uint256",
          "name": "ethReceived",
          "type": "uint256"
        },
        {
          "indexed": false,
          "internalType": "uint256",
          "name": "tokensIntoLiquidity",
          "type": "uint256"
        }
      ],
      "name": "SwapAndLiquify",
      "type": "event"
    },
    {
      "anonymous": false,
      "inputs": [
        {
          "indexed": false,
          "internalType": "bool",
          "name": "enabled",
          "type": "bool"
        }
      ],
      "name": "SwapAndLiquifyEnabledUpdated",
      "type": "event"
    },
    {
      "anonymous": false,
      "inputs": [
        {
          "indexed": true,
          "internalType": "address",
          "name": "from",
          "type": "address"
        },
        {
          "indexed": true,
          "internalType": "address",
          "name": "to",
          "type": "address"
        },
        {
          "indexed": false,
          "internalType": "uint256",
          "name": "value",
          "type": "uint256"
        }
      ],
      "name": "Transfer",
      "type": "event"
    },
    {
      "inputs": [
        {
          "internalType": "address",
          "name": "owner",
          "type": "address"
        },
        {
          "internalType": "address",
          "name": "spender",
          "type": "address"
        }
      ],
      "name": "allowance",
      "outputs": [
        {
          "internalType": "uint256",
          "name": "",
          "type": "uint256"
        }
      ],
      "stateMutability": "view",
      "type": "function"
    },
    {
      "inputs": [
        {
          "internalType": "address",
          "name": "spender",
          "type": "address"
        },
        {
          "internalType": "uint256",
          "name": "amount",
          "type": "uint256"
        }
      ],
      "name": "approve",
      "outputs": [
        {
          "internalType": "bool",
          "name": "",
          "type": "bool"
        }
      ],
      "stateMutability": "nonpayable",
      "type": "function"
    },
    {
      "inputs": [
        {
          "internalType": "address",
          "name": "account",
          "type": "address"
        }
      ],
      "name": "balanceOf",
      "outputs": [
        {
          "internalType": "uint256",
          "name": "",
          "type": "uint256"
        }
      ],
      "stateMutability": "view",
      "type": "function"
    },
    {
      "inputs": [
        {
          "internalType": "uint256",
          "name": "amount",
          "type": "uint256"
        }
      ],
      "name": "burn",
      "outputs": [],
      "stateMutability": "nonpayable",
      "type": "function"
    },
    {
      "inputs": [],
      "name": "decimals",
      "outputs": [
        {
          "internalType": "uint8",
          "name": "",
          "type": "uint8"
        }
      ],
      "stateMutability": "pure",
      "type": "function"
    },
    {
      "inputs": [
        {
          "internalType": "address",
          "name": "spender",
          "type": "address"
        },
        {
          "internalType": "uint256",
          "name": "subtractedValue",
          "type": "uint256"
        }
      ],
      "name": "decreaseAllowance",
      "outputs": [
        {
          "internalType": "bool",
          "name": "",
          "type": "bool"
        }
      ],
      "stateMutability": "nonpayable",
      "type": "function"
    },
    {
      "inputs": [
        {
          "internalType": "address",
          "name": "account",
          "type": "address"
        }
      ],
      "name": "excludeFromReward",
      "outputs": [],
      "stateMutability": "nonpayable",
      "type": "function"
    },
    {
      "inputs": [],
      "name": "getUnlockTime",
      "outputs": [
        {
          "internalType": "uint256",
          "name": "",
          "type": "uint256"
        }
      ],
      "stateMutability": "view",
      "type": "function"
    },
    {
      "inputs": [
        {
          "internalType": "address",
          "name": "account",
          "type": "address"
        }
      ],
      "name": "includeInReward",
      "outputs": [],
      "stateMutability": "nonpayable",
      "type": "function"
    },
    {
      "inputs": [
        {
          "internalType": "address",
          "name": "spender",
          "type": "address"
        },
        {
          "internalType": "uint256",
          "name": "addedValue",
          "type": "uint256"
        }
      ],
      "name": "increaseAllowance",
      "outputs": [
        {
          "internalType": "bool",
          "name": "",
          "type": "bool"
        }
      ],
      "stateMutability": "nonpayable",
      "type": "function"
    },
    {
      "inputs": [
        {
          "internalType": "address",
          "name": "account",
          "type": "address"
        }
      ],
      "name": "isExcludedFromFee",
      "outputs": [
        {
          "internalType": "bool",
          "name": "",
          "type": "bool"
        }
      ],
      "stateMutability": "view",
      "type": "function"
    },
    {
      "inputs": [
        {
          "internalType": "address",
          "name": "account",
          "type": "address"
        }
      ],
      "name": "isExcludedFromReward",
      "outputs": [
        {
          "internalType": "bool",
          "name": "",
          "type": "bool"
        }
      ],
      "stateMutability": "view",
      "type": "function"
    },
    {
      "inputs": [
        {
          "internalType": "uint256",
          "name": "time",
          "type": "uint256"
        }
      ],
      "name": "lock",
      "outputs": [],
      "stateMutability": "nonpayable",
      "type": "function"
    },
    {
      "inputs": [],
      "name": "manager",
      "outputs": [
        {
          "internalType": "address",
          "name": "",
          "type": "address"
        }
      ],
      "stateMutability": "view",
      "type": "function"
    },
    {
      "inputs": [],
      "name": "name",
      "outputs": [
        {
          "internalType": "string",
          "name": "",
          "type": "string"
        }
      ],
      "stateMutability": "pure",
      "type": "function"
    },
    {
      "inputs": [],
      "name": "owner",
      "outputs": [
        {
          "internalType": "address",
          "name": "",
          "type": "address"
        }
      ],
      "stateMutability": "view",
      "type": "function"
    },
    {
      "inputs": [
        {
          "internalType": "uint256",
          "name": "tAmount",
          "type": "uint256"
        },
        {
          "internalType": "bool",
          "name": "deductTransferFee",
          "type": "bool"
        }
      ],
      "name": "reflectionFromToken",
      "outputs": [
        {
          "internalType": "uint256",
          "name": "",
          "type": "uint256"
        }
      ],
      "stateMutability": "view",
      "type": "function"
    },
    {
      "inputs": [],
      "name": "renounceOwnership",
      "outputs": [],
      "stateMutability": "nonpayable",
      "type": "function"
    },
    {
      "inputs": [
        {
          "internalType": "address",
          "name": "account",
          "type": "address"
        },
        {
          "internalType": "bool",
          "name": "value",
          "type": "bool"
        }
      ],
      "name": "setExcludedFromFee",
      "outputs": [],
      "stateMutability": "nonpayable",
      "type": "function"
    },
    {
      "inputs": [
        {
          "internalType": "bool",
          "name": "value",
          "type": "bool"
        }
      ],
      "name": "setPreseableEnabled",
      "outputs": [],
      "stateMutability": "nonpayable",
      "type": "function"
    },
    {
      "inputs": [
        {
          "internalType": "address",
          "name": "router",
          "type": "address"
        }
      ],
      "name": "setRouterAddress",
      "outputs": [],
      "stateMutability": "nonpayable",
      "type": "function"
    },
    {
      "inputs": [
        {
          "internalType": "bool",
          "name": "enabled",
          "type": "bool"
        }
      ],
      "name": "setSwapAndLiquifyEnabled",
      "outputs": [],
      "stateMutability": "nonpayable",
      "type": "function"
    },
    {
      "inputs": [],
      "name": "symbol",
      "outputs": [
        {
          "internalType": "string",
          "name": "",
          "type": "string"
        }
      ],
      "stateMutability": "pure",
      "type": "function"
    },
    {
      "inputs": [],
      "name": "totalSupply",
      "outputs": [
        {
          "internalType": "uint256",
          "name": "",
          "type": "uint256"
        }
      ],
      "stateMutability": "pure",
      "type": "function"
    },
    {
      "inputs": [
        {
          "internalType": "address",
          "name": "recipient",
          "type": "address"
        },
        {
          "internalType": "uint256",
          "name": "amount",
          "type": "uint256"
        }
      ],
      "name": "transfer",
      "outputs": [
        {
          "internalType": "bool",
          "name": "",
          "type": "bool"
        }
      ],
      "stateMutability": "nonpayable",
      "type": "function"
    },
    {
      "inputs": [
        {
          "internalType": "address",
          "name": "sender",
          "type": "address"
        },
        {
          "internalType": "address",
          "name": "recipient",
          "type": "address"
        },
        {
          "internalType": "uint256",
          "name": "amount",
          "type": "uint256"
        }
      ],
      "name": "transferFrom",
      "outputs": [
        {
          "internalType": "bool",
          "name": "",
          "type": "bool"
        }
      ],
      "stateMutability": "nonpayable",
      "type": "function"
    },
    {
      "inputs": [
        {
          "internalType": "address",
          "name": "newManager",
          "type": "address"
        }
      ],
      "name": "transferManagement",
      "outputs": [],
      "stateMutability": "nonpayable",
      "type": "function"
    },
    {
      "inputs": [
        {
          "internalType": "address",
          "name": "newOwner",
          "type": "address"
        }
      ],
      "name": "transferOwnership",
      "outputs": [],
      "stateMutability": "nonpayable",
      "type": "function"
    },
    {
      "inputs": [],
      "name": "unlock",
      "outputs": [],
      "stateMutability": "nonpayable",
      "type": "function"
    },
    {
      "inputs": [
        {
          "internalType": "address payable",
          "name": "recipient",
          "type": "address"
        }
      ],
      "name": "withdrawLockedEth",
      "outputs": [],
      "stateMutability": "nonpayable",
      "type": "function"
    },
    {
      "stateMutability": "payable",
      "type": "receive"
    }
  ],
  "bytecode": "0x60806040526012600a620000149190620015e5565b6503a35294400062000027919062001722565b60001962000036919062001857565b60001962000045919062001783565b60045561dead600560006101000a81548173ffffffffffffffffffffffffffffffffffffffff021916908373ffffffffffffffffffffffffffffffffffffffff160217905550737a250d5630b4cf539739df2c5dacb4c659f2488d600f60016101000a81548173ffffffffffffffffffffffffffffffffffffffff021916908373ffffffffffffffffffffffffffffffffffffffff1602179055506001601160156101000a81548160ff0219169083151502179055503480156200010857600080fd5b50600160006200011d6200058160201b60201c565b9050806000806101000a81548173ffffffffffffffffffffffffffffffffffffffff021916908373ffffffffffffffffffffffffffffffffffffffff1602179055508073ffffffffffffffffffffffffffffffffffffffff16600073ffffffffffffffffffffffffffffffffffffffff167f8be0079c531659141344cd1fd0a4f28419497f9722a3daafe3b4186f6b6457e060405160405180910390a3506000620001cd6200058160201b60201c565b905080600360006101000a81548173ffffffffffffffffffffffffffffffffffffffff021916908373ffffffffffffffffffffffffffffffffffffffff1602179055508073ffffffffffffffffffffffffffffffffffffffff16600073ffffffffffffffffffffffffffffffffffffffff167f80f15e9dbc60884fdb59fb8ed4fc48a9a689e028f055e893ed45ca5be67c5c8560405160405180910390a3506200027c6200058960201b60201c565b6004546008600062000293620005ec60201b60201c565b73ffffffffffffffffffffffffffffffffffffffff1673ffffffffffffffffffffffffffffffffffffffff168152602001908152602001600020819055506001600b6000620002e7620005ec60201b60201c565b73ffffffffffffffffffffffffffffffffffffffff1673ffffffffffffffffffffffffffffffffffffffff16815260200190815260200160002060006101000a81548160ff0219169083151502179055506001600b60003073ffffffffffffffffffffffffffffffffffffffff1673ffffffffffffffffffffffffffffffffffffffff16815260200190815260200160002060006101000a81548160ff021916908315150217905550620003b0620003a4620005ec60201b60201c565b6200061560201b60201c565b620003c1306200061560201b60201c565b620003d1620005ec60201b60201c565b73ffffffffffffffffffffffffffffffffffffffff16600073ffffffffffffffffffffffffffffffffffffffff167fddf252ad1be2c89b69c2b068fc378daa952ba7f163c4a11628f55a4df523b3ef6012600a620004309190620015e5565b6503a35294400062000443919062001722565b604051620004529190620014c7565b60405180910390a3620004ce8160146012600a620004719190620015e5565b6503a35294400062000484919062001722565b62000490919062001552565b6103e86012600a620004a39190620015e5565b6503a352944000620004b6919062001722565b620004c2919062001552565b620007b060201b60201c565b62000501601160009054906101000a900473ffffffffffffffffffffffffffffffffffffffff166200061560201b60201c565b62000534600560009054906101000a900473ffffffffffffffffffffffffffffffffffffffff166200061560201b60201c565b506200057b62000549620005ec60201b60201c565b601060009054906101000a900473ffffffffffffffffffffffffffffffffffffffff16600019620008d260201b60201c565b62001a01565b600033905090565b6200059e6002600a3062000aa560201b60201c565b620005d560006014600560009054906101000a900473ffffffffffffffffffffffffffffffffffffffff1662000aa560201b60201c565b620005ea6001600a3062000aa560201b60201c565b565b60008060009054906101000a900473ffffffffffffffffffffffffffffffffffffffff16905090565b6000600860008373ffffffffffffffffffffffffffffffffffffffff1673ffffffffffffffffffffffffffffffffffffffff168152602001908152602001600020541115620006f257620006ae600860008373ffffffffffffffffffffffffffffffffffffffff1673ffffffffffffffffffffffffffffffffffffffff1681526020019081526020016000205462000c1560201b60201c565b600960008373ffffffffffffffffffffffffffffffffffffffff1673ffffffffffffffffffffffffffffffffffffffff168152602001908152602001600020819055505b6001600c60008373ffffffffffffffffffffffffffffffffffffffff1673ffffffffffffffffffffffffffffffffffffffff16815260200190815260200160002060006101000a81548160ff021916908315150217905550600d819080600181540180825580915050600190039060005260206000200160009091909190916101000a81548173ffffffffffffffffffffffffffffffffffffffff021916908373ffffffffffffffffffffffffffffffffffffffff16021790555050565b82600f60006101000a81548160ff02191690836001811115620007fc577f4e487b7100000000000000000000000000000000000000000000000000000000600052602160045260246000fd5b02179055506001808111156200083b577f4e487b7100000000000000000000000000000000000000000000000000000000600052602160045260246000fd5b600f60009054906101000a900460ff16600181111562000884577f4e487b7100000000000000000000000000000000000000000000000000000000600052602160045260246000fd5b1415620008bf57620008be600f60019054906101000a900473ffffffffffffffffffffffffffffffffffffffff1662000c9560201b60201c565b5b8160128190555080601381905550505050565b600073ffffffffffffffffffffffffffffffffffffffff168373ffffffffffffffffffffffffffffffffffffffff16141562000945576040517f08c379a00000000000000000000000000000000000000000000000000000000081526004016200093c9062001461565b60405180910390fd5b600073ffffffffffffffffffffffffffffffffffffffff168273ffffffffffffffffffffffffffffffffffffffff161415620009b8576040517f08c379a0000000000000000000000000000000000000000000000000000000008152600401620009af90620014a5565b60405180910390fd5b80600a60008573ffffffffffffffffffffffffffffffffffffffff1673ffffffffffffffffffffffffffffffffffffffff16815260200190815260200160002060008473ffffffffffffffffffffffffffffffffffffffff1673ffffffffffffffffffffffffffffffffffffffff168152602001908152602001600020819055508173ffffffffffffffffffffffffffffffffffffffff168373ffffffffffffffffffffffffffffffffffffffff167f8c5be1e5ebec7d5bd14f71427d1e84f3dd0314c0f7b2291e5b200ac8c7c3b9258360405162000a989190620014c7565b60405180910390a3505050565b6006604051806080016040528085600281111562000aec577f4e487b7100000000000000000000000000000000000000000000000000000000600052602160045260246000fd5b81526020018481526020018373ffffffffffffffffffffffffffffffffffffffff1681526020016000815250908060018154018082558091505060019003906000526020600020906004020160009091909190915060008201518160000160006101000a81548160ff0219169083600281111562000b93577f4e487b7100000000000000000000000000000000000000000000000000000000600052602160045260246000fd5b02179055506020820151816001015560408201518160020160006101000a81548173ffffffffffffffffffffffffffffffffffffffff021916908373ffffffffffffffffffffffffffffffffffffffff160217905550606082015181600301555050816007600082825462000c099190620014f5565b92505081905550505050565b600060045482111562000c5f576040517f08c379a000000000000000000000000000000000000000000000000000000000815260040162000c569062001483565b60405180910390fd5b600062000c7162000ef760201b60201c565b905062000c8d818462000f3160201b620022d31790919060201c565b915050919050565b60008190508073ffffffffffffffffffffffffffffffffffffffff1663c45a01556040518163ffffffff1660e01b815260040160206040518083038186803b15801562000ce157600080fd5b505afa15801562000cf6573d6000803e3d6000fd5b505050506040513d601f19601f8201168201806040525081019062000d1c919062001371565b73ffffffffffffffffffffffffffffffffffffffff1663c9c653968273ffffffffffffffffffffffffffffffffffffffff1663ad5c46486040518163ffffffff1660e01b815260040160206040518083038186803b15801562000d7e57600080fd5b505afa15801562000d93573d6000803e3d6000fd5b505050506040513d601f19601f8201168201806040525081019062000db9919062001371565b306040518363ffffffff1660e01b815260040162000dd992919062001434565b602060405180830381600087803b15801562000df457600080fd5b505af115801562000e09573d6000803e3d6000fd5b505050506040513d601f19601f8201168201806040525081019062000e2f919062001371565b601160006101000a81548173ffffffffffffffffffffffffffffffffffffffff021916908373ffffffffffffffffffffffffffffffffffffffff16021790555080601060006101000a81548173ffffffffffffffffffffffffffffffffffffffff021916908373ffffffffffffffffffffffffffffffffffffffff1602179055508173ffffffffffffffffffffffffffffffffffffffff167fc6b438e6a8a59579ce6a4406cbd203b740e0d47b458aae6596339bcd40c40d1560405160405180910390a25050565b600080600062000f0c62000f4960201b60201c565b9150915062000f2a818362000f3160201b620022d31790919060201c565b9250505090565b6000818362000f41919062001552565b905092915050565b6000806000600454905060006012600a62000f659190620015e5565b6503a35294400062000f78919062001722565b905060005b600d80549050811015620012b0578260086000600d848154811062000fcb577f4e487b7100000000000000000000000000000000000000000000000000000000600052603260045260246000fd5b9060005260206000200160009054906101000a900473ffffffffffffffffffffffffffffffffffffffff1673ffffffffffffffffffffffffffffffffffffffff1673ffffffffffffffffffffffffffffffffffffffff168152602001908152602001600020541180620010e157508160096000600d848154811062001079577f4e487b7100000000000000000000000000000000000000000000000000000000600052603260045260246000fd5b9060005260206000200160009054906101000a900473ffffffffffffffffffffffffffffffffffffffff1673ffffffffffffffffffffffffffffffffffffffff1673ffffffffffffffffffffffffffffffffffffffff16815260200190815260200160002054115b156200111a576004546012600a620010fa9190620015e5565b6503a3529440006200110d919062001722565b945094505050506200133e565b620011d860086000600d84815481106200115d577f4e487b7100000000000000000000000000000000000000000000000000000000600052603260045260246000fd5b9060005260206000200160009054906101000a900473ffffffffffffffffffffffffffffffffffffffff1673ffffffffffffffffffffffffffffffffffffffff1673ffffffffffffffffffffffffffffffffffffffff16815260200190815260200160002054846200134260201b620022e91790919060201c565b92506200129860096000600d84815481106200121d577f4e487b7100000000000000000000000000000000000000000000000000000000600052603260045260246000fd5b9060005260206000200160009054906101000a900473ffffffffffffffffffffffffffffffffffffffff1673ffffffffffffffffffffffffffffffffffffffff1673ffffffffffffffffffffffffffffffffffffffff16815260200190815260200160002054836200134260201b620022e91790919060201c565b91508080620012a79062001809565b91505062000f7d565b506000811480620012fd5750620012fa6012600a620012d09190620015e5565b6503a352944000620012e3919062001722565b60045462000f3160201b620022d31790919060201c565b82105b1562001335576004546012600a620013169190620015e5565b6503a35294400062001329919062001722565b9350935050506200133e565b81819350935050505b9091565b6000818362001352919062001783565b905092915050565b6000815190506200136b81620019e7565b92915050565b6000602082840312156200138457600080fd5b600062001394848285016200135a565b91505092915050565b620013a881620017be565b82525050565b6000620013bd602b83620014e4565b9150620013ca82620018fa565b604082019050919050565b6000620013e4602a83620014e4565b9150620013f18262001949565b604082019050919050565b60006200140b602983620014e4565b9150620014188262001998565b604082019050919050565b6200142e81620017f2565b82525050565b60006040820190506200144b60008301856200139d565b6200145a60208301846200139d565b9392505050565b600060208201905081810360008301526200147c81620013ae565b9050919050565b600060208201905081810360008301526200149e81620013d5565b9050919050565b60006020820190508181036000830152620014c081620013fc565b9050919050565b6000602082019050620014de600083018462001423565b92915050565b600082825260208201905092915050565b60006200150282620017f2565b91506200150f83620017f2565b9250827fffffffffffffffffffffffffffffffffffffffffffffffffffffffffffffffff038211156200154757620015466200188f565b5b828201905092915050565b60006200155f82620017f2565b91506200156c83620017f2565b9250826200157f576200157e620018be565b5b828204905092915050565b6000808291508390505b6001851115620015dc57808604811115620015b457620015b36200188f565b5b6001851615620015c45780820291505b8081029050620015d485620018ed565b945062001594565b94509492505050565b6000620015f282620017f2565b9150620015ff83620017fc565b92506200162e7fffffffffffffffffffffffffffffffffffffffffffffffffffffffffffffffff848462001636565b905092915050565b6000826200164857600190506200171b565b816200165857600090506200171b565b81600181146200167157600281146200167c57620016b2565b60019150506200171b565b60ff8411156200169157620016906200188f565b5b8360020a915084821115620016ab57620016aa6200188f565b5b506200171b565b5060208310610133831016604e8410600b8410161715620016ec5782820a905083811115620016e657620016e56200188f565b5b6200171b565b620016fb84848460016200158a565b925090508184048111156200171557620017146200188f565b5b81810290505b9392505050565b60006200172f82620017f2565b91506200173c83620017f2565b9250817fffffffffffffffffffffffffffffffffffffffffffffffffffffffffffffffff04831182151516156200177857620017776200188f565b5b828202905092915050565b60006200179082620017f2565b91506200179d83620017f2565b925082821015620017b357620017b26200188f565b5b828203905092915050565b6000620017cb82620017d2565b9050919050565b600073ffffffffffffffffffffffffffffffffffffffff82169050919050565b6000819050919050565b600060ff82169050919050565b60006200181682620017f2565b91507fffffffffffffffffffffffffffffffffffffffffffffffffffffffffffffffff8214156200184c576200184b6200188f565b5b600182019050919050565b60006200186482620017f2565b91506200187183620017f2565b925082620018845762001883620018be565b5b828206905092915050565b7f4e487b7100000000000000000000000000000000000000000000000000000000600052601160045260246000fd5b7f4e487b7100000000000000000000000000000000000000000000000000000000600052601260045260246000fd5b60008160011c9050919050565b7f42617365526669546f6b656e3a20617070726f76652066726f6d20746865207a60008201527f65726f2061646472657373000000000000000000000000000000000000000000602082015250565b7f416d6f756e74206d757374206265206c657373207468616e20746f74616c207260008201527f65666c656374696f6e7300000000000000000000000000000000000000000000602082015250565b7f42617365526669546f6b656e3a20617070726f766520746f20746865207a657260008201527f6f20616464726573730000000000000000000000000000000000000000000000602082015250565b620019f281620017be565b8114620019fe57600080fd5b50565b615f7c8062001a116000396000f3fe6080604052600436106101d15760003560e01c806370a08231116100f7578063a69df4b511610095578063dd46706411610064578063dd467064146106a5578063dd62ed3e146106ce578063e4edf8521461070b578063f2fde38b14610734576101d8565b8063a69df4b5146105ff578063a9059cbb14610616578063b7671a0d14610653578063c49b9a801461067c576101d8565b806388f82020116100d157806388f820201461052f5780638da5cb5b1461056c57806395d89b4114610597578063a457c2d7146105c2576101d8565b806370a08231146104b2578063715018a6146104ef57806374778cdc14610506576101d8565b806341cb87fc1161016f57806352390c021161013e57806352390c02146103f85780635342acb414610421578063602bc62b1461045e5780636612e66f14610489576101d8565b806341cb87fc1461033e57806342966c68146103675780634549b03914610390578063481c6a75146103cd576101d8565b806323b872dd116101ab57806323b872dd14610270578063313ce567146102ad5780633685d419146102d85780633950935114610301576101d8565b806306fdde03146101dd578063095ea7b31461020857806318160ddd14610245576101d8565b366101d857005b600080fd5b3480156101e957600080fd5b506101f261075d565b6040516101ff9190614fb4565b60405180910390f35b34801561021457600080fd5b5061022f600480360381019061022a919061498a565b61079a565b60405161023c9190614f99565b60405180910390f35b34801561025157600080fd5b5061025a6107b8565b6040516102679190615306565b60405180910390f35b34801561027c57600080fd5b50610297600480360381019061029291906148ff565b6107de565b6040516102a49190614f99565b60405180910390f35b3480156102b957600080fd5b506102c26108b7565b6040516102cf91906153b2565b60405180910390f35b3480156102e457600080fd5b506102ff60048036038101906102fa9190614848565b6108c0565b005b34801561030d57600080fd5b506103286004803603810190610323919061498a565b610ca7565b6040516103359190614f99565b60405180910390f35b34801561034a57600080fd5b5061036560048036038101906103609190614848565b610d5a565b005b34801561037357600080fd5b5061038e600480360381019061038991906149ef565b610dfd565b005b34801561039c57600080fd5b506103b760048036038101906103b29190614a18565b611106565b6040516103c49190615306565b60405180910390f35b3480156103d957600080fd5b506103e26111b7565b6040516103ef9190614ef4565b60405180910390f35b34801561040457600080fd5b5061041f600480360381019061041a9190614848565b6111e1565b005b34801561042d57600080fd5b5061044860048036038101906104439190614848565b61130f565b6040516104559190614f99565b60405180910390f35b34801561046a57600080fd5b50610473611365565b6040516104809190615306565b60405180910390f35b34801561049557600080fd5b506104b060048036038101906104ab919061494e565b61136f565b005b3480156104be57600080fd5b506104d960048036038101906104d49190614848565b61145f565b6040516104e69190615306565b60405180910390f35b3480156104fb57600080fd5b5061050461154a565b005b34801561051257600080fd5b5061052d600480360381019061052891906149c6565b61169d565b005b34801561053b57600080fd5b5061055660048036038101906105519190614848565b611751565b6040516105639190614f99565b60405180910390f35b34801561057857600080fd5b506105816117a7565b60405161058e9190614ef4565b60405180910390f35b3480156105a357600080fd5b506105ac6117d0565b6040516105b99190614fb4565b60405180910390f35b3480156105ce57600080fd5b506105e960048036038101906105e4919061498a565b61180d565b6040516105f69190614f99565b60405180910390f35b34801561060b57600080fd5b506106146118da565b005b34801561062257600080fd5b5061063d6004803603810190610638919061498a565b611aae565b60405161064a9190614f99565b60405180910390f35b34801561065f57600080fd5b5061067a6004803603810190610675919061489a565b611acc565b005b34801561068857600080fd5b506106a3600480360381019061069e91906149c6565b611c72565b005b3480156106b157600080fd5b506106cc60048036038101906106c791906149ef565b611d6c565b005b3480156106da57600080fd5b506106f560048036038101906106f091906148c3565b611f33565b6040516107029190615306565b60405180910390f35b34801561071757600080fd5b50610732600480360381019061072d9190614848565b611fba565b005b34801561074057600080fd5b5061075b60048036038101906107569190614848565b612111565b005b60606040518060400160405280600381526020017f5034430000000000000000000000000000000000000000000000000000000000815250905090565b60006107ae6107a76122ff565b8484612307565b6001905092915050565b60006012600a6107c891906154fc565b6503a3529440006107d9919061561a565b905090565b60006107eb8484846124d2565b6108ac846107f76122ff565b6108a785604051806060016040528060288152602001615efa60289139600a60008b73ffffffffffffffffffffffffffffffffffffffff1673ffffffffffffffffffffffffffffffffffffffff168152602001908152602001600020600061085d6122ff565b73ffffffffffffffffffffffffffffffffffffffff1673ffffffffffffffffffffffffffffffffffffffff168152602001908152602001600020546129099092919063ffffffff16565b612307565b600190509392505050565b60006012905090565b6108c86122ff565b73ffffffffffffffffffffffffffffffffffffffff1660008054906101000a900473ffffffffffffffffffffffffffffffffffffffff1673ffffffffffffffffffffffffffffffffffffffff1614610955576040517f08c379a000000000000000000000000000000000000000000000000000000000815260040161094c906151e6565b60405180910390fd5b600c60008273ffffffffffffffffffffffffffffffffffffffff1673ffffffffffffffffffffffffffffffffffffffff16815260200190815260200160002060009054906101000a900460ff166109e1576040517f08c379a00000000000000000000000000000000000000000000000000000000081526004016109d8906150e6565b60405180910390fd5b60005b600d80549050811015610ca3578173ffffffffffffffffffffffffffffffffffffffff16600d8281548110610a42577f4e487b7100000000000000000000000000000000000000000000000000000000600052603260045260246000fd5b9060005260206000200160009054906101000a900473ffffffffffffffffffffffffffffffffffffffff1673ffffffffffffffffffffffffffffffffffffffff161415610c9057600d6001600d80549050610a9d9190615674565b81548110610ad4577f4e487b7100000000000000000000000000000000000000000000000000000000600052603260045260246000fd5b9060005260206000200160009054906101000a900473ffffffffffffffffffffffffffffffffffffffff16600d8281548110610b39577f4e487b7100000000000000000000000000000000000000000000000000000000600052603260045260246000fd5b9060005260206000200160006101000a81548173ffffffffffffffffffffffffffffffffffffffff021916908373ffffffffffffffffffffffffffffffffffffffff1602179055506000600960008473ffffffffffffffffffffffffffffffffffffffff1673ffffffffffffffffffffffffffffffffffffffff168152602001908152602001600020819055506000600c60008473ffffffffffffffffffffffffffffffffffffffff1673ffffffffffffffffffffffffffffffffffffffff16815260200190815260200160002060006101000a81548160ff021916908315150217905550600d805480610c56577f4e487b7100000000000000000000000000000000000000000000000000000000600052603160045260246000fd5b6001900381819060005260206000200160006101000a81549073ffffffffffffffffffffffffffffffffffffffff02191690559055610ca3565b8080610c9b90615754565b9150506109e4565b5050565b6000610d50610cb46122ff565b84610d4b85600a6000610cc56122ff565b73ffffffffffffffffffffffffffffffffffffffff1673ffffffffffffffffffffffffffffffffffffffff16815260200190815260200160002060008973ffffffffffffffffffffffffffffffffffffffff1673ffffffffffffffffffffffffffffffffffffffff1681526020019081526020016000205461295e90919063ffffffff16565b612307565b6001905092915050565b610d626122ff565b73ffffffffffffffffffffffffffffffffffffffff16600360009054906101000a900473ffffffffffffffffffffffffffffffffffffffff1673ffffffffffffffffffffffffffffffffffffffff1614610df1576040517f08c379a0000000000000000000000000000000000000000000000000000000008152600401610de890615286565b60405180910390fd5b610dfa81612974565b50565b6000610e076122ff565b9050600073ffffffffffffffffffffffffffffffffffffffff168173ffffffffffffffffffffffffffffffffffffffff161415610e79576040517f08c379a0000000000000000000000000000000000000000000000000000000008152600401610e70906152e6565b60405180910390fd5b600560009054906101000a900473ffffffffffffffffffffffffffffffffffffffff1673ffffffffffffffffffffffffffffffffffffffff168173ffffffffffffffffffffffffffffffffffffffff161415610f0a576040517f08c379a0000000000000000000000000000000000000000000000000000000008152600401610f01906150c6565b60405180910390fd5b6000610f158261145f565b905082811015610f5a576040517f08c379a0000000000000000000000000000000000000000000000000000000008152600401610f5190615186565b60405180910390fd5b6000610f76610f67612bc8565b85612bf390919063ffffffff16565b9050610fca81600860008673ffffffffffffffffffffffffffffffffffffffff1673ffffffffffffffffffffffffffffffffffffffff168152602001908152602001600020546122e990919063ffffffff16565b600860008573ffffffffffffffffffffffffffffffffffffffff1673ffffffffffffffffffffffffffffffffffffffff16815260200190815260200160002081905550600c60008473ffffffffffffffffffffffffffffffffffffffff1673ffffffffffffffffffffffffffffffffffffffff16815260200190815260200160002060009054906101000a900460ff16156110f5576110b184600960008673ffffffffffffffffffffffffffffffffffffffff1673ffffffffffffffffffffffffffffffffffffffff168152602001908152602001600020546122e990919063ffffffff16565b600960008573ffffffffffffffffffffffffffffffffffffffff1673ffffffffffffffffffffffffffffffffffffffff168152602001908152602001600020819055505b611100838583612c09565b50505050565b60006012600a61111691906154fc565b6503a352944000611127919061561a565b831115611169576040517f08c379a000000000000000000000000000000000000000000000000000000000815260040161116090615146565b60405180910390fd5b8161118a57600061117b846000612ebc565b505050509050809150506111b1565b60006111a6846111a161119b6122ff565b87612f79565b612ebc565b505050915050809150505b92915050565b6000600360009054906101000a900473ffffffffffffffffffffffffffffffffffffffff16905090565b6111e96122ff565b73ffffffffffffffffffffffffffffffffffffffff1660008054906101000a900473ffffffffffffffffffffffffffffffffffffffff1673ffffffffffffffffffffffffffffffffffffffff1614611276576040517f08c379a000000000000000000000000000000000000000000000000000000000815260040161126d906151e6565b60405180910390fd5b600c60008273ffffffffffffffffffffffffffffffffffffffff1673ffffffffffffffffffffffffffffffffffffffff16815260200190815260200160002060009054906101000a900460ff1615611303576040517f08c379a00000000000000000000000000000000000000000000000000000000081526004016112fa906150a6565b60405180910390fd5b61130c81612f86565b50565b6000600b60008373ffffffffffffffffffffffffffffffffffffffff1673ffffffffffffffffffffffffffffffffffffffff16815260200190815260200160002060009054906101000a900460ff169050919050565b6000600254905090565b6113776122ff565b73ffffffffffffffffffffffffffffffffffffffff1660008054906101000a900473ffffffffffffffffffffffffffffffffffffffff1673ffffffffffffffffffffffffffffffffffffffff1614611404576040517f08c379a00000000000000000000000000000000000000000000000000000000081526004016113fb906151e6565b60405180910390fd5b80600b60008473ffffffffffffffffffffffffffffffffffffffff1673ffffffffffffffffffffffffffffffffffffffff16815260200190815260200160002060006101000a81548160ff0219169083151502179055505050565b6000600c60008373ffffffffffffffffffffffffffffffffffffffff1673ffffffffffffffffffffffffffffffffffffffff16815260200190815260200160002060009054906101000a900460ff16156114fa57600960008373ffffffffffffffffffffffffffffffffffffffff1673ffffffffffffffffffffffffffffffffffffffff168152602001908152602001600020549050611545565b611542600860008473ffffffffffffffffffffffffffffffffffffffff1673ffffffffffffffffffffffffffffffffffffffff16815260200190815260200160002054613118565b90505b919050565b6115526122ff565b73ffffffffffffffffffffffffffffffffffffffff1660008054906101000a900473ffffffffffffffffffffffffffffffffffffffff1673ffffffffffffffffffffffffffffffffffffffff16146115df576040517f08c379a00000000000000000000000000000000000000000000000000000000081526004016115d6906151e6565b60405180910390fd5b600073ffffffffffffffffffffffffffffffffffffffff1660008054906101000a900473ffffffffffffffffffffffffffffffffffffffff1673ffffffffffffffffffffffffffffffffffffffff167f8be0079c531659141344cd1fd0a4f28419497f9722a3daafe3b4186f6b6457e060405160405180910390a360008060006101000a81548173ffffffffffffffffffffffffffffffffffffffff021916908373ffffffffffffffffffffffffffffffffffffffff160217905550565b6116a56122ff565b73ffffffffffffffffffffffffffffffffffffffff16600360009054906101000a900473ffffffffffffffffffffffffffffffffffffffff1673ffffffffffffffffffffffffffffffffffffffff1614611734576040517f08c379a000000000000000000000000000000000000000000000000000000000815260040161172b90615286565b60405180910390fd5b80600360146101000a81548160ff02191690831515021790555050565b6000600c60008373ffffffffffffffffffffffffffffffffffffffff1673ffffffffffffffffffffffffffffffffffffffff16815260200190815260200160002060009054906101000a900460ff169050919050565b60008060009054906101000a900473ffffffffffffffffffffffffffffffffffffffff16905090565b60606040518060400160405280600381526020017f5034430000000000000000000000000000000000000000000000000000000000815250905090565b60006118d061181a6122ff565b846118cb85604051806060016040528060258152602001615f2260259139600a60006118446122ff565b73ffffffffffffffffffffffffffffffffffffffff1673ffffffffffffffffffffffffffffffffffffffff16815260200190815260200160002060008a73ffffffffffffffffffffffffffffffffffffffff1673ffffffffffffffffffffffffffffffffffffffff168152602001908152602001600020546129099092919063ffffffff16565b612307565b6001905092915050565b3373ffffffffffffffffffffffffffffffffffffffff16600160009054906101000a900473ffffffffffffffffffffffffffffffffffffffff1673ffffffffffffffffffffffffffffffffffffffff161461196a576040517f08c379a000000000000000000000000000000000000000000000000000000000815260040161196190615046565b60405180910390fd5b60025442116119ae576040517f08c379a00000000000000000000000000000000000000000000000000000000081526004016119a590615006565b60405180910390fd5b600160009054906101000a900473ffffffffffffffffffffffffffffffffffffffff1673ffffffffffffffffffffffffffffffffffffffff1660008054906101000a900473ffffffffffffffffffffffffffffffffffffffff1673ffffffffffffffffffffffffffffffffffffffff167f8be0079c531659141344cd1fd0a4f28419497f9722a3daafe3b4186f6b6457e060405160405180910390a3600160009054906101000a900473ffffffffffffffffffffffffffffffffffffffff166000806101000a81548173ffffffffffffffffffffffffffffffffffffffff021916908373ffffffffffffffffffffffffffffffffffffffff160217905550565b6000611ac2611abb6122ff565b84846124d2565b6001905092915050565b611ad46122ff565b73ffffffffffffffffffffffffffffffffffffffff16600360009054906101000a900473ffffffffffffffffffffffffffffffffffffffff1673ffffffffffffffffffffffffffffffffffffffff1614611b63576040517f08c379a0000000000000000000000000000000000000000000000000000000008152600401611b5a90615286565b60405180910390fd5b600073ffffffffffffffffffffffffffffffffffffffff168173ffffffffffffffffffffffffffffffffffffffff161415611bd3576040517f08c379a0000000000000000000000000000000000000000000000000000000008152600401611bca906151c6565b60405180910390fd5b6000600e5411611c18576040517f08c379a0000000000000000000000000000000000000000000000000000000008152600401611c0f90615246565b60405180910390fd5b6000600e5490506000600e819055508173ffffffffffffffffffffffffffffffffffffffff166108fc829081150290604051600060405180830381858888f19350505050158015611c6d573d6000803e3d6000fd5b505050565b611c7a6122ff565b73ffffffffffffffffffffffffffffffffffffffff16600360009054906101000a900473ffffffffffffffffffffffffffffffffffffffff1673ffffffffffffffffffffffffffffffffffffffff1614611d09576040517f08c379a0000000000000000000000000000000000000000000000000000000008152600401611d0090615286565b60405180910390fd5b80601160156101000a81548160ff0219169083151502179055507f53726dfcaf90650aa7eb35524f4d3220f07413c8d6cb404cc8c18bf5591bc159601160159054906101000a900460ff16604051611d619190614f99565b60405180910390a150565b611d746122ff565b73ffffffffffffffffffffffffffffffffffffffff1660008054906101000a900473ffffffffffffffffffffffffffffffffffffffff1673ffffffffffffffffffffffffffffffffffffffff1614611e01576040517f08c379a0000000000000000000000000000000000000000000000000000000008152600401611df8906151e6565b60405180910390fd5b60008054906101000a900473ffffffffffffffffffffffffffffffffffffffff16600160006101000a81548173ffffffffffffffffffffffffffffffffffffffff021916908373ffffffffffffffffffffffffffffffffffffffff16021790555060008060006101000a81548173ffffffffffffffffffffffffffffffffffffffff021916908373ffffffffffffffffffffffffffffffffffffffff1602179055508042611eaf9190615422565b600281905550600073ffffffffffffffffffffffffffffffffffffffff1660008054906101000a900473ffffffffffffffffffffffffffffffffffffffff1673ffffffffffffffffffffffffffffffffffffffff167f8be0079c531659141344cd1fd0a4f28419497f9722a3daafe3b4186f6b6457e060405160405180910390a350565b6000600a60008473ffffffffffffffffffffffffffffffffffffffff1673ffffffffffffffffffffffffffffffffffffffff16815260200190815260200160002060008373ffffffffffffffffffffffffffffffffffffffff1673ffffffffffffffffffffffffffffffffffffffff16815260200190815260200160002054905092915050565b611fc26122ff565b73ffffffffffffffffffffffffffffffffffffffff16600360009054906101000a900473ffffffffffffffffffffffffffffffffffffffff1673ffffffffffffffffffffffffffffffffffffffff1614612051576040517f08c379a000000000000000000000000000000000000000000000000000000000815260040161204890615286565b60405180910390fd5b8073ffffffffffffffffffffffffffffffffffffffff16600360009054906101000a900473ffffffffffffffffffffffffffffffffffffffff1673ffffffffffffffffffffffffffffffffffffffff167f80f15e9dbc60884fdb59fb8ed4fc48a9a689e028f055e893ed45ca5be67c5c8560405160405180910390a380600360006101000a81548173ffffffffffffffffffffffffffffffffffffffff021916908373ffffffffffffffffffffffffffffffffffffffff16021790555050565b6121196122ff565b73ffffffffffffffffffffffffffffffffffffffff1660008054906101000a900473ffffffffffffffffffffffffffffffffffffffff1673ffffffffffffffffffffffffffffffffffffffff16146121a6576040517f08c379a000000000000000000000000000000000000000000000000000000000815260040161219d906151e6565b60405180910390fd5b600073ffffffffffffffffffffffffffffffffffffffff168173ffffffffffffffffffffffffffffffffffffffff161415612216576040517f08c379a000000000000000000000000000000000000000000000000000000000815260040161220d90615086565b60405180910390fd5b8073ffffffffffffffffffffffffffffffffffffffff1660008054906101000a900473ffffffffffffffffffffffffffffffffffffffff1673ffffffffffffffffffffffffffffffffffffffff167f8be0079c531659141344cd1fd0a4f28419497f9722a3daafe3b4186f6b6457e060405160405180910390a3806000806101000a81548173ffffffffffffffffffffffffffffffffffffffff021916908373ffffffffffffffffffffffffffffffffffffffff16021790555050565b600081836122e19190615478565b905092915050565b600081836122f79190615674565b905092915050565b600033905090565b600073ffffffffffffffffffffffffffffffffffffffff168373ffffffffffffffffffffffffffffffffffffffff161415612377576040517f08c379a000000000000000000000000000000000000000000000000000000000815260040161236e90615026565b60405180910390fd5b600073ffffffffffffffffffffffffffffffffffffffff168273ffffffffffffffffffffffffffffffffffffffff1614156123e7576040517f08c379a00000000000000000000000000000000000000000000000000000000081526004016123de906152c6565b60405180910390fd5b80600a60008573ffffffffffffffffffffffffffffffffffffffff1673ffffffffffffffffffffffffffffffffffffffff16815260200190815260200160002060008473ffffffffffffffffffffffffffffffffffffffff1673ffffffffffffffffffffffffffffffffffffffff168152602001908152602001600020819055508173ffffffffffffffffffffffffffffffffffffffff168373ffffffffffffffffffffffffffffffffffffffff167f8c5be1e5ebec7d5bd14f71427d1e84f3dd0314c0f7b2291e5b200ac8c7c3b925836040516124c59190615306565b60405180910390a3505050565b600073ffffffffffffffffffffffffffffffffffffffff168373ffffffffffffffffffffffffffffffffffffffff161415612542576040517f08c379a000000000000000000000000000000000000000000000000000000000815260040161253990615106565b60405180910390fd5b600073ffffffffffffffffffffffffffffffffffffffff168273ffffffffffffffffffffffffffffffffffffffff1614156125b2576040517f08c379a00000000000000000000000000000000000000000000000000000000081526004016125a9906151a6565b60405180910390fd5b600560009054906101000a900473ffffffffffffffffffffffffffffffffffffffff1673ffffffffffffffffffffffffffffffffffffffff168373ffffffffffffffffffffffffffffffffffffffff161415612643576040517f08c379a000000000000000000000000000000000000000000000000000000000815260040161263a90615126565b60405180910390fd5b60008111612686576040517f08c379a000000000000000000000000000000000000000000000000000000000815260040161267d90615206565b60405180910390fd5b806126908461145f565b10156126d1576040517f08c379a00000000000000000000000000000000000000000000000000000000081526004016126c890615226565b60405180910390fd5b60006001905060146012600a6126e791906154fc565b6503a3529440006126f8919061561a565b6127029190615478565b82118015612716575061271484613186565b155b80156127285750612726836131c5565b155b15612768576040517f08c379a000000000000000000000000000000000000000000000000000000000815260040161275f90615166565b60405180910390fd5b60006012600a61277891906154fc565b6503a352944000612789919061561a565b11801561279c575061279a84613186565b155b80156127ae57506127ac836131c5565b155b80156127c057506127be8361325c565b155b156128405760006127d08461145f565b90506012600a6127e091906154fc565b6503a3529440006127f1919061561a565b83826127fd9190615422565b111561283e576040517f08c379a000000000000000000000000000000000000000000000000000000000815260040161283590615266565b60405180910390fd5b505b600b60008573ffffffffffffffffffffffffffffffffffffffff1673ffffffffffffffffffffffffffffffffffffffff16815260200190815260200160002060009054906101000a900460ff16806128e15750600b60008473ffffffffffffffffffffffffffffffffffffffff1673ffffffffffffffffffffffffffffffffffffffff16815260200190815260200160002060009054906101000a900460ff165b156128eb57600090505b6128f7848484846132b6565b612903848484846132e9565b50505050565b6000838311158290612951576040517f08c379a00000000000000000000000000000000000000000000000000000000081526004016129489190614fb4565b60405180910390fd5b5082840390509392505050565b6000818361296c9190615422565b905092915050565b60008190508073ffffffffffffffffffffffffffffffffffffffff1663c45a01556040518163ffffffff1660e01b815260040160206040518083038186803b1580156129bf57600080fd5b505afa1580156129d3573d6000803e3d6000fd5b505050506040513d601f19601f820116820180604052508101906129f79190614871565b73ffffffffffffffffffffffffffffffffffffffff1663c9c653968273ffffffffffffffffffffffffffffffffffffffff1663ad5c46486040518163ffffffff1660e01b815260040160206040518083038186803b158015612a5857600080fd5b505afa158015612a6c573d6000803e3d6000fd5b505050506040513d601f19601f82011682018060405250810190612a909190614871565b306040518363ffffffff1660e01b8152600401612aae929190614f0f565b602060405180830381600087803b158015612ac857600080fd5b505af1158015612adc573d6000803e3d6000fd5b505050506040513d601f19601f82011682018060405250810190612b009190614871565b601160006101000a81548173ffffffffffffffffffffffffffffffffffffffff021916908373ffffffffffffffffffffffffffffffffffffffff16021790555080601060006101000a81548173ffffffffffffffffffffffffffffffffffffffff021916908373ffffffffffffffffffffffffffffffffffffffff1602179055508173ffffffffffffffffffffffffffffffffffffffff167fc6b438e6a8a59579ce6a4406cbd203b740e0d47b458aae6596339bcd40c40d1560405160405180910390a25050565b6000806000612bd5613711565b91509150612bec81836122d390919063ffffffff16565b9250505090565b60008183612c01919061561a565b905092915050565b612c7d8160086000600560009054906101000a900473ffffffffffffffffffffffffffffffffffffffff1673ffffffffffffffffffffffffffffffffffffffff1673ffffffffffffffffffffffffffffffffffffffff1681526020019081526020016000205461295e90919063ffffffff16565b60086000600560009054906101000a900473ffffffffffffffffffffffffffffffffffffffff1673ffffffffffffffffffffffffffffffffffffffff1673ffffffffffffffffffffffffffffffffffffffff16815260200190815260200160002081905550600c6000600560009054906101000a900473ffffffffffffffffffffffffffffffffffffffff1673ffffffffffffffffffffffffffffffffffffffff1673ffffffffffffffffffffffffffffffffffffffff16815260200190815260200160002060009054906101000a900460ff1615612e3057612dca8260096000600560009054906101000a900473ffffffffffffffffffffffffffffffffffffffff1673ffffffffffffffffffffffffffffffffffffffff1673ffffffffffffffffffffffffffffffffffffffff1681526020019081526020016000205461295e90919063ffffffff16565b60096000600560009054906101000a900473ffffffffffffffffffffffffffffffffffffffff1673ffffffffffffffffffffffffffffffffffffffff1673ffffffffffffffffffffffffffffffffffffffff168152602001908152602001600020819055505b600560009054906101000a900473ffffffffffffffffffffffffffffffffffffffff1673ffffffffffffffffffffffffffffffffffffffff168373ffffffffffffffffffffffffffffffffffffffff167fddf252ad1be2c89b69c2b068fc378daa952ba7f163c4a11628f55a4df523b3ef84604051612eaf9190615306565b60405180910390a3505050565b600080600080600080612ef06103e861ffff16612ee2898b612bf390919063ffffffff16565b6122d390919063ffffffff16565b90506000612f07828a6122e990919063ffffffff16565b90506000612f13612bc8565b90506000612f2a828c612bf390919063ffffffff16565b90506000612f418386612bf390919063ffffffff16565b90506000612f5882846122e990919063ffffffff16565b905082818e87879a509a509a509a509a505050505050509295509295909350565b6000600754905092915050565b6000600860008373ffffffffffffffffffffffffffffffffffffffff1673ffffffffffffffffffffffffffffffffffffffff16815260200190815260200160002054111561305a57613016600860008373ffffffffffffffffffffffffffffffffffffffff1673ffffffffffffffffffffffffffffffffffffffff16815260200190815260200160002054613118565b600960008373ffffffffffffffffffffffffffffffffffffffff1673ffffffffffffffffffffffffffffffffffffffff168152602001908152602001600020819055505b6001600c60008373ffffffffffffffffffffffffffffffffffffffff1673ffffffffffffffffffffffffffffffffffffffff16815260200190815260200160002060006101000a81548160ff021916908315150217905550600d819080600181540180825580915050600190039060005260206000200160009091909190916101000a81548173ffffffffffffffffffffffffffffffffffffffff021916908373ffffffffffffffffffffffffffffffffffffffff16021790555050565b600060045482111561315f576040517f08c379a000000000000000000000000000000000000000000000000000000000815260040161315690615066565b60405180910390fd5b6000613169612bc8565b905061317e81846122d390919063ffffffff16565b915050919050565b60006131906117a7565b73ffffffffffffffffffffffffffffffffffffffff168273ffffffffffffffffffffffffffffffffffffffff16149050919050565b60006131cf6117a7565b73ffffffffffffffffffffffffffffffffffffffff168273ffffffffffffffffffffffffffffffffffffffff1614806132555750600560009054906101000a900473ffffffffffffffffffffffffffffffffffffffff1673ffffffffffffffffffffffffffffffffffffffff168273ffffffffffffffffffffffffffffffffffffffff16145b9050919050565b6000601160009054906101000a900473ffffffffffffffffffffffffffffffffffffffff1673ffffffffffffffffffffffffffffffffffffffff168273ffffffffffffffffffffffffffffffffffffffff16149050919050565b600360149054906101000a900460ff166132e35760006132d53061145f565b90506132e18186613ad7565b505b50505050565b60006132f58584612f79565b90506133366040518060400160405280600581526020017f666565733a00000000000000000000000000000000000000000000000000000081525082613b90565b8161334057600090505b60008060008060006133528887612ebc565b945094509450945094506133ae85600860008d73ffffffffffffffffffffffffffffffffffffffff1673ffffffffffffffffffffffffffffffffffffffff168152602001908152602001600020546122e990919063ffffffff16565b600860008c73ffffffffffffffffffffffffffffffffffffffff1673ffffffffffffffffffffffffffffffffffffffff1681526020019081526020016000208190555061344384600860008c73ffffffffffffffffffffffffffffffffffffffff1673ffffffffffffffffffffffffffffffffffffffff1681526020019081526020016000205461295e90919063ffffffff16565b600860008b73ffffffffffffffffffffffffffffffffffffffff1673ffffffffffffffffffffffffffffffffffffffff16815260200190815260200160002081905550600c60008b73ffffffffffffffffffffffffffffffffffffffff1673ffffffffffffffffffffffffffffffffffffffff16815260200190815260200160002060009054906101000a900460ff161561356e5761352a83600960008d73ffffffffffffffffffffffffffffffffffffffff1673ffffffffffffffffffffffffffffffffffffffff168152602001908152602001600020546122e990919063ffffffff16565b600960008c73ffffffffffffffffffffffffffffffffffffffff1673ffffffffffffffffffffffffffffffffffffffff168152602001908152602001600020819055505b600c60008a73ffffffffffffffffffffffffffffffffffffffff1673ffffffffffffffffffffffffffffffffffffffff16815260200190815260200160002060009054906101000a900460ff16156136565761361282600960008c73ffffffffffffffffffffffffffffffffffffffff1673ffffffffffffffffffffffffffffffffffffffff1681526020019081526020016000205461295e90919063ffffffff16565b600960008b73ffffffffffffffffffffffffffffffffffffffff1673ffffffffffffffffffffffffffffffffffffffff168152602001908152602001600020819055505b6136956040518060400160405280601081526020017f745472616e73666572416d6f756e743a0000000000000000000000000000000081525083613b90565b6136a0888288613c2c565b8873ffffffffffffffffffffffffffffffffffffffff168a73ffffffffffffffffffffffffffffffffffffffff167fddf252ad1be2c89b69c2b068fc378daa952ba7f163c4a11628f55a4df523b3ef846040516136fd9190615306565b60405180910390a350505050505050505050565b6000806000600454905060006012600a61372b91906154fc565b6503a35294400061373c919061561a565b905060005b600d80549050811015613a57578260086000600d848154811061378d577f4e487b7100000000000000000000000000000000000000000000000000000000600052603260045260246000fd5b9060005260206000200160009054906101000a900473ffffffffffffffffffffffffffffffffffffffff1673ffffffffffffffffffffffffffffffffffffffff1673ffffffffffffffffffffffffffffffffffffffff1681526020019081526020016000205411806138a157508160096000600d8481548110613839577f4e487b7100000000000000000000000000000000000000000000000000000000600052603260045260246000fd5b9060005260206000200160009054906101000a900473ffffffffffffffffffffffffffffffffffffffff1673ffffffffffffffffffffffffffffffffffffffff1673ffffffffffffffffffffffffffffffffffffffff16815260200190815260200160002054115b156138d4576004546012600a6138b791906154fc565b6503a3529440006138c8919061561a565b94509450505050613ad3565b61398a60086000600d8481548110613915577f4e487b7100000000000000000000000000000000000000000000000000000000600052603260045260246000fd5b9060005260206000200160009054906101000a900473ffffffffffffffffffffffffffffffffffffffff1673ffffffffffffffffffffffffffffffffffffffff1673ffffffffffffffffffffffffffffffffffffffff16815260200190815260200160002054846122e990919063ffffffff16565b9250613a4260096000600d84815481106139cd577f4e487b7100000000000000000000000000000000000000000000000000000000600052603260045260246000fd5b9060005260206000200160009054906101000a900473ffffffffffffffffffffffffffffffffffffffff1673ffffffffffffffffffffffffffffffffffffffff1673ffffffffffffffffffffffffffffffffffffffff16815260200190815260200160002054836122e990919063ffffffff16565b91508080613a4f90615754565b915050613741565b506000811480613a985750613a956012600a613a7391906154fc565b6503a352944000613a84919061561a565b6004546122d390919063ffffffff16565b82105b15613aca576004546012600a613aae91906154fc565b6503a352944000613abf919061561a565b935093505050613ad3565b81819350935050505b9091565b6012548210613ae65760125491505b60006013548310159050808015613b095750601160159054906101000a900460ff165b8015613b225750601160149054906101000a900460ff16155b8015613b7c5750601160009054906101000a900473ffffffffffffffffffffffffffffffffffffffff1673ffffffffffffffffffffffffffffffffffffffff168273ffffffffffffffffffffffffffffffffffffffff1614155b15613b8b57613b8a83613c5e565b5b505050565b613c288282604051602401613ba6929190614fd6565b6040516020818303038152906040527f9710a9d0000000000000000000000000000000000000000000000000000000007bffffffffffffffffffffffffffffffffffffffffffffffffffffffff19166020820180517bffffffffffffffffffffffffffffffffffffffffffffffffffffffff8381831617835250505050613d34565b5050565b600081118015613c495750600360149054906101000a900460ff16155b15613c5957613c588383613d5d565b5b505050565b6001601160146101000a81548160ff0219169083151502179055506000613c8f6002836122d390919063ffffffff16565b90506000613ca682846122e990919063ffffffff16565b90506000479050613cb683613ef4565b6000613ccb82476122e990919063ffffffff16565b9050613cd783826141b8565b7f17bbfb9a6069321b6ded73bd96327c9e6b7212a5cd51ff219cd61370acafb561848285604051613d0a9392919061537b565b60405180910390a1505050506000601160146101000a81548160ff02191690831515021790555050565b60008151905060006a636f6e736f6c652e6c6f679050602083016000808483855afa5050505050565b600360149054906101000a900460ff1615613d7757613ef0565b6000613d816142f9565b905060005b81811015613eed576000806000613d9c84614306565b509250925092506000821415613db457505050613eda565b600280811115613ded577f4e487b7100000000000000000000000000000000000000000000000000000000600052602160045260246000fd5b836002811115613e26577f4e487b7100000000000000000000000000000000000000000000000000000000600052602160045260246000fd5b1415613e3d57613e3887878487614439565b613ed6565b60006002811115613e77577f4e487b7100000000000000000000000000000000000000000000000000000000600052602160045260246000fd5b836002811115613eb0577f4e487b7100000000000000000000000000000000000000000000000000000000600052602160045260246000fd5b1415613ec757613ec2878784876144ac565b613ed5565b613ed4878784848861450f565b5b5b5050505b8080613ee590615754565b915050613d86565b50505b5050565b6000600267ffffffffffffffff811115613f37577f4e487b7100000000000000000000000000000000000000000000000000000000600052604160045260246000fd5b604051908082528060200260200182016040528015613f655781602001602082028036833780820191505090505b5090503081600081518110613fa3577f4e487b7100000000000000000000000000000000000000000000000000000000600052603260045260246000fd5b602002602001019073ffffffffffffffffffffffffffffffffffffffff16908173ffffffffffffffffffffffffffffffffffffffff1681525050601060009054906101000a900473ffffffffffffffffffffffffffffffffffffffff1673ffffffffffffffffffffffffffffffffffffffff1663ad5c46486040518163ffffffff1660e01b815260040160206040518083038186803b15801561404557600080fd5b505afa158015614059573d6000803e3d6000fd5b505050506040513d601f19601f8201168201806040525081019061407d9190614871565b816001815181106140b7577f4e487b7100000000000000000000000000000000000000000000000000000000600052603260045260246000fd5b602002602001019073ffffffffffffffffffffffffffffffffffffffff16908173ffffffffffffffffffffffffffffffffffffffff168152505061411e30601060009054906101000a900473ffffffffffffffffffffffffffffffffffffffff16846146e5565b601060009054906101000a900473ffffffffffffffffffffffffffffffffffffffff1673ffffffffffffffffffffffffffffffffffffffff1663791ac9478360008430426040518663ffffffff1660e01b8152600401614182959493929190615321565b600060405180830381600087803b15801561419c57600080fd5b505af11580156141b0573d6000803e3d6000fd5b505050505050565b6141e530601060009054906101000a900473ffffffffffffffffffffffffffffffffffffffff16846146e5565b6000806000601060009054906101000a900473ffffffffffffffffffffffffffffffffffffffff1673ffffffffffffffffffffffffffffffffffffffff1663f305d7198530886000806142366117a7565b426040518863ffffffff1660e01b815260040161425896959493929190614f38565b6060604051808303818588803b15801561427157600080fd5b505af1158015614285573d6000803e3d6000fd5b50505050506040513d601f19601f820116820180604052508101906142aa9190614a54565b92509250925047600e819055507fd7f28048575eead8851d024ead087913957dfb4fd1a02b4d1573f5352a5a2be38383836040516142ea9392919061537b565b60405180910390a15050505050565b6000600680549050905090565b6000806000806000614317866146f5565b6040518060800160405290816000820160009054906101000a900460ff16600281111561436d577f4e487b7100000000000000000000000000000000000000000000000000000000600052602160045260246000fd5b60028111156143a5577f4e487b7100000000000000000000000000000000000000000000000000000000600052602160045260246000fd5b8152602001600182015481526020016002820160009054906101000a900473ffffffffffffffffffffffffffffffffffffffff1673ffffffffffffffffffffffffffffffffffffffff1673ffffffffffffffffffffffffffffffffffffffff168152602001600382015481525050905080600001518160200151826040015183606001519450945094509450509193509193565b60006144666103e861ffff166144588588612bf390919063ffffffff16565b6122d390919063ffffffff16565b9050600061447d8583612bf390919063ffffffff16565b9050614494816004546122e990919063ffffffff16565b6004819055506144a48383614799565b505050505050565b60006144d96103e861ffff166144cb8588612bf390919063ffffffff16565b6122d390919063ffffffff16565b905060006144f08583612bf390919063ffffffff16565b90506144fd308383612c09565b6145078383614799565b505050505050565b600061453c6103e861ffff1661452e8689612bf390919063ffffffff16565b6122d390919063ffffffff16565b905060006145538683612bf390919063ffffffff16565b90506145a781600860008773ffffffffffffffffffffffffffffffffffffffff1673ffffffffffffffffffffffffffffffffffffffff1681526020019081526020016000205461295e90919063ffffffff16565b600860008673ffffffffffffffffffffffffffffffffffffffff1673ffffffffffffffffffffffffffffffffffffffff16815260200190815260200160002081905550600c60008573ffffffffffffffffffffffffffffffffffffffff1673ffffffffffffffffffffffffffffffffffffffff16815260200190815260200160002060009054906101000a900460ff16156146d25761468e82600960008773ffffffffffffffffffffffffffffffffffffffff1673ffffffffffffffffffffffffffffffffffffffff1681526020019081526020016000205461295e90919063ffffffff16565b600960008673ffffffffffffffffffffffffffffffffffffffff1673ffffffffffffffffffffffffffffffffffffffff168152602001908152602001600020819055505b6146dc8383614799565b50505050505050565b6146f0838383612307565b505050565b600080821015801561470b575060068054905082105b61474a576040517f08c379a0000000000000000000000000000000000000000000000000000000008152600401614741906152a6565b60405180910390fd5b60068281548110614784577f4e487b7100000000000000000000000000000000000000000000000000000000600052603260045260246000fd5b90600052602060002090600402019050919050565b60006147a4836146f5565b90506147bd82826003015461295e90919063ffffffff16565b8160030181905550505050565b6000813590506147d981615e9d565b92915050565b6000815190506147ee81615e9d565b92915050565b60008135905061480381615eb4565b92915050565b60008135905061481881615ecb565b92915050565b60008135905061482d81615ee2565b92915050565b60008151905061484281615ee2565b92915050565b60006020828403121561485a57600080fd5b6000614868848285016147ca565b91505092915050565b60006020828403121561488357600080fd5b6000614891848285016147df565b91505092915050565b6000602082840312156148ac57600080fd5b60006148ba848285016147f4565b91505092915050565b600080604083850312156148d657600080fd5b60006148e4858286016147ca565b92505060206148f5858286016147ca565b9150509250929050565b60008060006060848603121561491457600080fd5b6000614922868287016147ca565b9350506020614933868287016147ca565b92505060406149448682870161481e565b9150509250925092565b6000806040838503121561496157600080fd5b600061496f858286016147ca565b925050602061498085828601614809565b9150509250929050565b6000806040838503121561499d57600080fd5b60006149ab858286016147ca565b92505060206149bc8582860161481e565b9150509250929050565b6000602082840312156149d857600080fd5b60006149e684828501614809565b91505092915050565b600060208284031215614a0157600080fd5b6000614a0f8482850161481e565b91505092915050565b60008060408385031215614a2b57600080fd5b6000614a398582860161481e565b9250506020614a4a85828601614809565b9150509250929050565b600080600060608486031215614a6957600080fd5b6000614a7786828701614833565b9350506020614a8886828701614833565b9250506040614a9986828701614833565b9150509250925092565b6000614aaf8383614abb565b60208301905092915050565b614ac4816156a8565b82525050565b614ad3816156a8565b82525050565b6000614ae4826153dd565b614aee8185615400565b9350614af9836153cd565b8060005b83811015614b2a578151614b118882614aa3565b9750614b1c836153f3565b925050600181019050614afd565b5085935050505092915050565b614b40816156cc565b82525050565b614b4f8161570f565b82525050565b6000614b60826153e8565b614b6a8185615411565b9350614b7a818560208601615721565b614b83816157fb565b840191505092915050565b6000614b9b601c83615411565b9150614ba682615819565b602082019050919050565b6000614bbe602b83615411565b9150614bc982615842565b604082019050919050565b6000614be1602c83615411565b9150614bec82615891565b604082019050919050565b6000614c04602a83615411565b9150614c0f826158e0565b604082019050919050565b6000614c27602683615411565b9150614c328261592f565b604082019050919050565b6000614c4a601783615411565b9150614c558261597e565b602082019050919050565b6000614c6d602883615411565b9150614c78826159a7565b604082019050919050565b6000614c90601783615411565b9150614c9b826159f6565b602082019050919050565b6000614cb3602c83615411565b9150614cbe82615a1f565b604082019050919050565b6000614cd6602c83615411565b9150614ce182615a6e565b604082019050919050565b6000614cf9601f83615411565b9150614d0482615abd565b602082019050919050565b6000614d1c602883615411565b9150614d2782615ae6565b604082019050919050565b6000614d3f602983615411565b9150614d4a82615b35565b604082019050919050565b6000614d62602a83615411565b9150614d6d82615b84565b604082019050919050565b6000614d85603383615411565b9150614d9082615bd3565b604082019050919050565b6000614da8602083615411565b9150614db382615c22565b602082019050919050565b6000614dcb602983615411565b9150614dd682615c4b565b604082019050919050565b6000614dee601483615411565b9150614df982615c9a565b602082019050919050565b6000614e11602683615411565b9150614e1c82615cc3565b604082019050919050565b6000614e34602d83615411565b9150614e3f82615d12565b604082019050919050565b6000614e57602583615411565b9150614e6282615d61565b604082019050919050565b6000614e7a603383615411565b9150614e8582615db0565b604082019050919050565b6000614e9d602983615411565b9150614ea882615dff565b604082019050919050565b6000614ec0602883615411565b9150614ecb82615e4e565b604082019050919050565b614edf816156f8565b82525050565b614eee81615702565b82525050565b6000602082019050614f096000830184614aca565b92915050565b6000604082019050614f246000830185614aca565b614f316020830184614aca565b9392505050565b600060c082019050614f4d6000830189614aca565b614f5a6020830188614ed6565b614f676040830187614b46565b614f746060830186614b46565b614f816080830185614aca565b614f8e60a0830184614ed6565b979650505050505050565b6000602082019050614fae6000830184614b37565b92915050565b60006020820190508181036000830152614fce8184614b55565b905092915050565b60006040820190508181036000830152614ff08185614b55565b9050614fff6020830184614ed6565b9392505050565b6000602082019050818103600083015261501f81614b8e565b9050919050565b6000602082019050818103600083015261503f81614bb1565b9050919050565b6000602082019050818103600083015261505f81614bd4565b9050919050565b6000602082019050818103600083015261507f81614bf7565b9050919050565b6000602082019050818103600083015261509f81614c1a565b9050919050565b600060208201905081810360008301526150bf81614c3d565b9050919050565b600060208201905081810360008301526150df81614c60565b9050919050565b600060208201905081810360008301526150ff81614c83565b9050919050565b6000602082019050818103600083015261511f81614ca6565b9050919050565b6000602082019050818103600083015261513f81614cc9565b9050919050565b6000602082019050818103600083015261515f81614cec565b9050919050565b6000602082019050818103600083015261517f81614d0f565b9050919050565b6000602082019050818103600083015261519f81614d32565b9050919050565b600060208201905081810360008301526151bf81614d55565b9050919050565b600060208201905081810360008301526151df81614d78565b9050919050565b600060208201905081810360008301526151ff81614d9b565b9050919050565b6000602082019050818103600083015261521f81614dbe565b9050919050565b6000602082019050818103600083015261523f81614de1565b9050919050565b6000602082019050818103600083015261525f81614e04565b9050919050565b6000602082019050818103600083015261527f81614e27565b9050919050565b6000602082019050818103600083015261529f81614e4a565b9050919050565b600060208201905081810360008301526152bf81614e6d565b9050919050565b600060208201905081810360008301526152df81614e90565b9050919050565b600060208201905081810360008301526152ff81614eb3565b9050919050565b600060208201905061531b6000830184614ed6565b92915050565b600060a0820190506153366000830188614ed6565b6153436020830187614b46565b81810360408301526153558186614ad9565b90506153646060830185614aca565b6153716080830184614ed6565b9695505050505050565b60006060820190506153906000830186614ed6565b61539d6020830185614ed6565b6153aa6040830184614ed6565b949350505050565b60006020820190506153c76000830184614ee5565b92915050565b6000819050602082019050919050565b600081519050919050565b600081519050919050565b6000602082019050919050565b600082825260208201905092915050565b600082825260208201905092915050565b600061542d826156f8565b9150615438836156f8565b9250827fffffffffffffffffffffffffffffffffffffffffffffffffffffffffffffffff0382111561546d5761546c61579d565b5b828201905092915050565b6000615483826156f8565b915061548e836156f8565b92508261549e5761549d6157cc565b5b828204905092915050565b6000808291508390505b60018511156154f3578086048111156154cf576154ce61579d565b5b60018516156154de5780820291505b80810290506154ec8561580c565b94506154b3565b94509492505050565b6000615507826156f8565b915061551283615702565b925061553f7fffffffffffffffffffffffffffffffffffffffffffffffffffffffffffffffff8484615547565b905092915050565b6000826155575760019050615613565b816155655760009050615613565b816001811461557b5760028114615585576155b4565b6001915050615613565b60ff8411156155975761559661579d565b5b8360020a9150848211156155ae576155ad61579d565b5b50615613565b5060208310610133831016604e8410600b84101617156155e95782820a9050838111156155e4576155e361579d565b5b615613565b6155f684848460016154a9565b9250905081840481111561560d5761560c61579d565b5b81810290505b9392505050565b6000615625826156f8565b9150615630836156f8565b9250817fffffffffffffffffffffffffffffffffffffffffffffffffffffffffffffffff04831182151516156156695761566861579d565b5b828202905092915050565b600061567f826156f8565b915061568a836156f8565b92508282101561569d5761569c61579d565b5b828203905092915050565b60006156b3826156d8565b9050919050565b60006156c5826156d8565b9050919050565b60008115159050919050565b600073ffffffffffffffffffffffffffffffffffffffff82169050919050565b6000819050919050565b600060ff82169050919050565b600061571a826156f8565b9050919050565b60005b8381101561573f578082015181840152602081019050615724565b8381111561574e576000848401525b50505050565b600061575f826156f8565b91507fffffffffffffffffffffffffffffffffffffffffffffffffffffffffffffffff8214156157925761579161579d565b5b600182019050919050565b7f4e487b7100000000000000000000000000000000000000000000000000000000600052601160045260246000fd5b7f4e487b7100000000000000000000000000000000000000000000000000000000600052601260045260246000fd5b6000601f19601f8301169050919050565b60008160011c9050919050565b7f54686520636f6e7472616374206973207374696c6c206c6f636b656400000000600082015250565b7f42617365526669546f6b656e3a20617070726f76652066726f6d20746865207a60008201527f65726f2061646472657373000000000000000000000000000000000000000000602082015250565b7f4f6e6c79207468652070726576696f7573206f776e65722063616e20756e6c6f60008201527f636b206f6e776572736869700000000000000000000000000000000000000000602082015250565b7f416d6f756e74206d757374206265206c657373207468616e20746f74616c207260008201527f65666c656374696f6e7300000000000000000000000000000000000000000000602082015250565b7f4f776e61626c653a206e6577206f776e657220697320746865207a65726f206160008201527f6464726573730000000000000000000000000000000000000000000000000000602082015250565b7f4163636f756e74206973206e6f7420696e636c75646564000000000000000000600082015250565b7f42617365526669546f6b656e3a206275726e2066726f6d20746865206275726e60008201527f2061646472657373000000000000000000000000000000000000000000000000602082015250565b7f4163636f756e74206973206e6f74206578636c75646564000000000000000000600082015250565b7f42617365526669546f6b656e3a207472616e736665722066726f6d207468652060008201527f7a65726f20616464726573730000000000000000000000000000000000000000602082015250565b7f42617365526669546f6b656e3a207472616e736665722066726f6d207468652060008201527f6275726e20616464726573730000000000000000000000000000000000000000602082015250565b7f416d6f756e74206d757374206265206c657373207468616e20737570706c7900600082015250565b7f5472616e7366657220616d6f756e74206578636565647320746865206d61785460008201527f78416d6f756e742e000000000000000000000000000000000000000000000000602082015250565b7f42617365526669546f6b656e3a206275726e20616d6f756e742065786365656460008201527f732062616c616e63650000000000000000000000000000000000000000000000602082015250565b7f42617365526669546f6b656e3a207472616e7366657220746f20746865207a6560008201527f726f206164647265737300000000000000000000000000000000000000000000602082015250565b7f43616e6e6f7420776974686472617720746865204554482062616c616e63652060008201527f746f20746865207a65726f206164647265737300000000000000000000000000602082015250565b7f4f776e61626c653a2063616c6c6572206973206e6f7420746865206f776e6572600082015250565b7f5472616e7366657220616d6f756e74206d75737420626520677265617465722060008201527f7468616e207a65726f0000000000000000000000000000000000000000000000602082015250565b7f496e73756666696369656e742042616c616e6365000000000000000000000000600082015250565b7f546865204554482062616c616e6365206d75737420626520677265617465722060008201527f7468616e20300000000000000000000000000000000000000000000000000000602082015250565b7f4e65772062616c616e636520776f756c642065786365656420746865206d617860008201527f57616c6c657442616c616e636500000000000000000000000000000000000000602082015250565b7f4d616e61676561626c653a2063616c6c6572206973206e6f7420746865206d6160008201527f6e61676572000000000000000000000000000000000000000000000000000000602082015250565b7f4665657353657474696e67732e5f6765744665655374727563743a204665652060008201527f696e646578206f7574206f6620626f756e647300000000000000000000000000602082015250565b7f42617365526669546f6b656e3a20617070726f766520746f20746865207a657260008201527f6f20616464726573730000000000000000000000000000000000000000000000602082015250565b7f42617365526669546f6b656e3a206275726e2066726f6d20746865207a65726f60008201527f2061646472657373000000000000000000000000000000000000000000000000602082015250565b615ea6816156a8565b8114615eb157600080fd5b50565b615ebd816156ba565b8114615ec857600080fd5b50565b615ed4816156cc565b8114615edf57600080fd5b50565b615eeb816156f8565b8114615ef657600080fd5b5056fe45524332303a207472616e7366657220616d6f756e74206578636565647320616c6c6f77616e636545524332303a2064656372656173656420616c6c6f77616e63652062656c6f77207a65726fa2646970667358221220cf0c171a8927d9eb887a980b1a70a134bfb75cdaebd4e44ac4de35927da2158864736f6c63430008040033",
  "linkReferences": {},
  "deployedLinkReferences": {}
}