{
  "_format": "hh-sol-artifact-1",
  "contractName": "P4CAirdrop",
  "sourceName": "contracts/P4C-Airdrop.sol",
  "abi": [
    {
      "inputs": [
        {
          "internalType": "uint256",
          "name": "_airdropTokenAmount",
          "type": "uint256"
        },
        {
          "internalType": "uint256",
          "name": "_airdropRuntimeInSeconds",
          "type": "uint256"
        },
        {
          "internalType": "uint256",
          "name": "_maxAirdropSubscribers",
          "type": "uint256"
        },
        {
          "internalType": "address",
          "name": "_tokenContractAddress",
          "type": "address"
        }
      ],
      "stateMutability": "nonpayable",
      "type": "constructor"
    },
    {
      "anonymous": false,
      "inputs": [
        {
          "indexed": false,
          "internalType": "string",
          "name": "message",
          "type": "string"
        }
      ],
      "name": "ContractMsg",
      "type": "event"
    },
    {
      "anonymous": false,
      "inputs": [
        {
          "indexed": false,
          "internalType": "string",
          "name": "msg",
          "type": "string"
        },
        {
          "indexed": false,
          "internalType": "address",
          "name": "subscriber",
          "type": "address"
        }
      ],
      "name": "NewSubscriber",
      "type": "event"
    },
    {
      "anonymous": false,
      "inputs": [
        {
          "indexed": false,
          "internalType": "string",
          "name": "msg",
          "type": "string"
        },
        {
          "indexed": false,
          "internalType": "uint256",
          "name": "amount",
          "type": "uint256"
        },
        {
          "indexed": false,
          "internalType": "address",
          "name": "receiver",
          "type": "address"
        }
      ],
      "name": "TokenDropped",
      "type": "event"
    },
    {
      "inputs": [],
      "name": "UpdateTokenBalance",
      "outputs": [
        {
          "internalType": "uint256",
          "name": "",
          "type": "uint256"
        }
      ],
      "stateMutability": "nonpayable",
      "type": "function"
    },
    {
      "inputs": [],
      "name": "airdropTokenAmount",
      "outputs": [
        {
          "internalType": "uint256",
          "name": "",
          "type": "uint256"
        }
      ],
      "stateMutability": "view",
      "type": "function"
    },
    {
      "inputs": [],
      "name": "contractEthBalance",
      "outputs": [
        {
          "internalType": "uint256",
          "name": "",
          "type": "uint256"
        }
      ],
      "stateMutability": "view",
      "type": "function"
    },
    {
      "inputs": [],
      "name": "contractTokenBalance",
      "outputs": [
        {
          "internalType": "uint256",
          "name": "",
          "type": "uint256"
        }
      ],
      "stateMutability": "nonpayable",
      "type": "function"
    },
    {
      "inputs": [],
      "name": "ethRefund",
      "outputs": [],
      "stateMutability": "payable",
      "type": "function"
    },
    {
      "inputs": [],
      "name": "getAirdropRuntime",
      "outputs": [
        {
          "internalType": "uint256",
          "name": "",
          "type": "uint256"
        }
      ],
      "stateMutability": "view",
      "type": "function"
    },
    {
      "inputs": [],
      "name": "getEndTime",
      "outputs": [
        {
          "internalType": "uint256",
          "name": "",
          "type": "uint256"
        }
      ],
      "stateMutability": "view",
      "type": "function"
    },
    {
      "inputs": [],
      "name": "getNowTime",
      "outputs": [
        {
          "internalType": "uint256",
          "name": "",
          "type": "uint256"
        }
      ],
      "stateMutability": "view",
      "type": "function"
    },
    {
      "inputs": [],
      "name": "getTimeLeft",
      "outputs": [
        {
          "internalType": "uint256",
          "name": "",
          "type": "uint256"
        }
      ],
      "stateMutability": "view",
      "type": "function"
    },
    {
      "inputs": [],
      "name": "getTimePassed",
      "outputs": [
        {
          "internalType": "uint256",
          "name": "",
          "type": "uint256"
        }
      ],
      "stateMutability": "view",
      "type": "function"
    },
    {
      "inputs": [],
      "name": "getairdrop",
      "outputs": [
        {
          "internalType": "uint256",
          "name": "",
          "type": "uint256"
        }
      ],
      "stateMutability": "nonpayable",
      "type": "function"
    },
    {
      "inputs": [],
      "name": "mainWalletCoins",
      "outputs": [
        {
          "internalType": "uint256",
          "name": "",
          "type": "uint256"
        }
      ],
      "stateMutability": "view",
      "type": "function"
    },
    {
      "inputs": [
        {
          "internalType": "address",
          "name": "_receiverAddress",
          "type": "address"
        },
        {
          "internalType": "uint256",
          "name": "tokenAmount",
          "type": "uint256"
        }
      ],
      "name": "manualTokenDrop",
      "outputs": [],
      "stateMutability": "nonpayable",
      "type": "function"
    },
    {
      "inputs": [],
      "name": "maxSubscribers",
      "outputs": [
        {
          "internalType": "uint256",
          "name": "",
          "type": "uint256"
        }
      ],
      "stateMutability": "view",
      "type": "function"
    },
    {
      "inputs": [],
      "name": "newSubscriber",
      "outputs": [],
      "stateMutability": "nonpayable",
      "type": "function"
    },
    {
      "inputs": [],
      "name": "numberOfSubscribers",
      "outputs": [
        {
          "internalType": "uint256",
          "name": "",
          "type": "uint256"
        }
      ],
      "stateMutability": "view",
      "type": "function"
    },
    {
      "inputs": [],
      "name": "owner",
      "outputs": [
        {
          "internalType": "address",
          "name": "",
          "type": "address"
        }
      ],
      "stateMutability": "view",
      "type": "function"
    },
    {
      "inputs": [
        {
          "internalType": "address",
          "name": "_addressToQuery",
          "type": "address"
        }
      ],
      "name": "queryERC20Balance",
      "outputs": [
        {
          "internalType": "uint256",
          "name": "",
          "type": "uint256"
        }
      ],
      "stateMutability": "view",
      "type": "function"
    },
    {
      "inputs": [],
      "name": "sweepEth",
      "outputs": [],
      "stateMutability": "nonpayable",
      "type": "function"
    },
    {
      "inputs": [],
      "name": "sweepTokens",
      "outputs": [],
      "stateMutability": "nonpayable",
      "type": "function"
    },
    {
      "inputs": [],
      "name": "tokenContract",
      "outputs": [
        {
          "internalType": "address",
          "name": "",
          "type": "address"
        }
      ],
      "stateMutability": "view",
      "type": "function"
    },
    {
      "inputs": [],
      "name": "totalAirdrop",
      "outputs": [
        {
          "internalType": "uint256",
          "name": "",
          "type": "uint256"
        }
      ],
      "stateMutability": "view",
      "type": "function"
    },
    {
      "inputs": [],
      "name": "totalCoinsMinted",
      "outputs": [
        {
          "internalType": "uint256",
          "name": "",
          "type": "uint256"
        }
      ],
      "stateMutability": "view",
      "type": "function"
    },
    {
      "inputs": [],
      "name": "userbalance",
      "outputs": [
        {
          "internalType": "uint256",
          "name": "",
          "type": "uint256"
        }
      ],
      "stateMutability": "view",
      "type": "function"
    },
    {
      "stateMutability": "payable",
      "type": "receive"
    }
  ],
  "bytecode": "0x60806040523480156200001157600080fd5b50604051620022f8380380620022f883398181016040528101906200003791906200017e565b600083116200004557600080fd5b33600160006101000a81548173ffffffffffffffffffffffffffffffffffffffff021916908373ffffffffffffffffffffffffffffffffffffffff16021790555081600581905550806000806101000a81548173ffffffffffffffffffffffffffffffffffffffff021916908373ffffffffffffffffffffffffffffffffffffffff160217905550600183620000dc9190620002a1565b60048190555042600281905550600454600254620000fb919062000244565b60038190555083600b81905550836007819055507f3fc5b66c035c91568033dbb9c679bd7c3e9040a55a279a9383891d8dca0bb8c26040516200013e9062000211565b60405180910390a150505050620003f8565b6000815190506200016181620003c4565b92915050565b6000815190506200017881620003de565b92915050565b600080600080608085870312156200019557600080fd5b6000620001a58782880162000167565b9450506020620001b88782880162000167565b9350506040620001cb8782880162000167565b9250506060620001de8782880162000150565b91505092959194509250565b6000620001f960268362000233565b9150620002068262000375565b604082019050919050565b600060208201905081810360008301526200022c81620001ea565b9050919050565b600082825260208201905092915050565b600062000251826200030d565b91506200025e836200030d565b9250827fffffffffffffffffffffffffffffffffffffffffffffffffffffffffffffffff0382111562000296576200029562000317565b5b828201905092915050565b6000620002ae826200030d565b9150620002bb836200030d565b925082620002ce57620002cd62000346565b5b828204905092915050565b6000620002e682620002ed565b9050919050565b600073ffffffffffffffffffffffffffffffffffffffff82169050919050565b6000819050919050565b7f4e487b7100000000000000000000000000000000000000000000000000000000600052601160045260246000fd5b7f4e487b7100000000000000000000000000000000000000000000000000000000600052601260045260246000fd5b7f41697264726f7020636f6e7472616374206465706c6f7965642073756363657360008201527f7366756c6c790000000000000000000000000000000000000000000000000000602082015250565b620003cf81620002d9565b8114620003db57600080fd5b50565b620003e9816200030d565b8114620003f557600080fd5b50565b611ef080620004086000396000f3fe60806040526004361061014f5760003560e01c8063670fcb87116100b65780639e9aed621161006f5780639e9aed621461041c578063c6ee937114610447578063c7e284b814610472578063dc70e77d1461049d578063e7030bd5146104c8578063ebd85ad7146104f35761015e565b8063670fcb871461036357806368490c091461038e5780638925dbcc146103985780638da5cb5b146103af5780639ac84414146103da5780639b819d38146103f15761015e565b80635ce97dbb116101085780635ce97dbb146102615780635d1cc97c1461028c5780635d58ce36146102b75780635f4370e5146102e25780635ff3f5b61461030d57806364921844146103385761015e565b806333027b5114610163578063439f5ac2146101a05780634670a0fa146101cb5780635384cb82146101f4578063549ff73b1461021f57806355a373d6146102365761015e565b3661015e5761015c61051e565b005b600080fd5b34801561016f57600080fd5b5061018a6004803603810190610185919061177b565b6105a9565b6040516101979190611a91565b60405180910390f35b3480156101ac57600080fd5b506101b561065c565b6040516101c29190611a91565b60405180910390f35b3480156101d757600080fd5b506101f260048036038101906101ed91906117a4565b610666565b005b34801561020057600080fd5b50610209610b3a565b6040516102169190611a91565b60405180910390f35b34801561022b57600080fd5b50610234610b40565b005b34801561024257600080fd5b5061024b610cf7565b6040516102589190611938565b60405180910390f35b34801561026d57600080fd5b50610276610d1b565b6040516102839190611a91565b60405180910390f35b34801561029857600080fd5b506102a1610d21565b6040516102ae9190611a91565b60405180910390f35b3480156102c357600080fd5b506102cc610d27565b6040516102d99190611a91565b60405180910390f35b3480156102ee57600080fd5b506102f7610d4b565b6040516103049190611a91565b60405180910390f35b34801561031957600080fd5b50610322610d51565b60405161032f9190611a91565b60405180910390f35b34801561034457600080fd5b5061034d610d57565b60405161035a9190611a91565b60405180910390f35b34801561036f57600080fd5b50610378610d87565b6040516103859190611a91565b60405180910390f35b61039661051e565b005b3480156103a457600080fd5b506103ad610d8d565b005b3480156103bb57600080fd5b506103c4610f77565b6040516103d19190611938565b60405180910390f35b3480156103e657600080fd5b506103ef610f9d565b005b3480156103fd57600080fd5b5061040661107d565b6040516104139190611a91565b60405180910390f35b34801561042857600080fd5b50610431611085565b60405161043e9190611a91565b60405180910390f35b34801561045357600080fd5b5061045c6110a3565b6040516104699190611a91565b60405180910390f35b34801561047e57600080fd5b506104876110ad565b6040516104949190611a91565b60405180910390f35b3480156104a957600080fd5b506104b26110dc565b6040516104bf9190611a91565b60405180910390f35b3480156104d457600080fd5b506104dd61119a565b6040516104ea9190611a91565b60405180910390f35b3480156104ff57600080fd5b506105086111a0565b6040516105159190611a91565b60405180910390f35b6000341161052b57600080fd5b3373ffffffffffffffffffffffffffffffffffffffff166108fc349081150290604051600060405180830381858888f19350505050158015610571573d6000803e3d6000fd5b507f3fc5b66c035c91568033dbb9c679bd7c3e9040a55a279a9383891d8dca0bb8c260405161059f90611a71565b60405180910390a1565b60008060009054906101000a900473ffffffffffffffffffffffffffffffffffffffff1673ffffffffffffffffffffffffffffffffffffffff166370a08231836040518263ffffffff1660e01b81526004016106059190611938565b60206040518083038186803b15801561061d57600080fd5b505afa158015610631573d6000803e3d6000fd5b505050506040513d601f19601f820116820180604052508101906106559190611809565b9050919050565b6000600354905090565b600160009054906101000a900473ffffffffffffffffffffffffffffffffffffffff1673ffffffffffffffffffffffffffffffffffffffff163373ffffffffffffffffffffffffffffffffffffffff16146106c057600080fd5b426003541180156106d9575060006106d7306105a9565b115b6106e257600080fd5b6000600954116106f157600080fd5b600073ffffffffffffffffffffffffffffffffffffffff16600c60008473ffffffffffffffffffffffffffffffffffffffff1673ffffffffffffffffffffffffffffffffffffffff16815260200190815260200160002060000160009054906101000a900473ffffffffffffffffffffffffffffffffffffffff1673ffffffffffffffffffffffffffffffffffffffff161415610870576000600c60008473ffffffffffffffffffffffffffffffffffffffff1673ffffffffffffffffffffffffffffffffffffffff1681526020019081526020016000209050828160000160006101000a81548173ffffffffffffffffffffffffffffffffffffffff021916908373ffffffffffffffffffffffffffffffffffffffff160217905550600d60008473ffffffffffffffffffffffffffffffffffffffff1673ffffffffffffffffffffffffffffffffffffffff1681526020019081526020016000205481600201819055506006600081548092919061086990611c58565b9190505550505b600060095414156108b5577f3fc5b66c035c91568033dbb9c679bd7c3e9040a55a279a9383891d8dca0bb8c26040516108a890611a51565b60405180910390a1600080fd5b630989680060095410610add5760006108db6008546009546111b890919063ffffffff16565b905060006108f6600754600a5461123390919063ffffffff16565b905061090b818361127d90919063ffffffff16565b925060008054906101000a900473ffffffffffffffffffffffffffffffffffffffff1673ffffffffffffffffffffffffffffffffffffffff1663095ea7b330856040518363ffffffff1660e01b815260040161096892919061198a565b602060405180830381600087803b15801561098257600080fd5b505af1158015610996573d6000803e3d6000fd5b505050506040513d601f19601f820116820180604052508101906109ba91906117e0565b5060008054906101000a900473ffffffffffffffffffffffffffffffffffffffff1673ffffffffffffffffffffffffffffffffffffffff166323b872dd3086866040518463ffffffff1660e01b8152600401610a1893929190611953565b602060405180830381600087803b158015610a3257600080fd5b505af1158015610a46573d6000803e3d6000fd5b505050506040513d601f19601f82011682018060405250810190610a6a91906117e0565b507fffd8ac882879055ca8fa8892b700aef7d21dec3d559518779e755c339d97b84e8385604051610a9c9291906119f5565b60405180910390a1610ab983600b5461123390919063ffffffff16565b600b81905550610ad483600b5461123390919063ffffffff16565b60078190555050505b80600c60008473ffffffffffffffffffffffffffffffffffffffff1673ffffffffffffffffffffffffffffffffffffffff1681526020019081526020016000206001016000828254610b2f9190611ac8565b925050819055505050565b600b5481565b42600354118015610b5957506000610b57306105a9565b115b610b6257600080fd5b6005546006541115610ba8577f3fc5b66c035c91568033dbb9c679bd7c3e9040a55a279a9383891d8dca0bb8c2604051610b9b906119d5565b60405180910390a1600080fd5b6000600c60003373ffffffffffffffffffffffffffffffffffffffff1673ffffffffffffffffffffffffffffffffffffffff1681526020019081526020016000209050600073ffffffffffffffffffffffffffffffffffffffff168160000160009054906101000a900473ffffffffffffffffffffffffffffffffffffffff1673ffffffffffffffffffffffffffffffffffffffff1614610c4857600080fd5b338160000160006101000a81548173ffffffffffffffffffffffffffffffffffffffff021916908373ffffffffffffffffffffffffffffffffffffffff160217905550600d60003373ffffffffffffffffffffffffffffffffffffffff1673ffffffffffffffffffffffffffffffffffffffff16815260200190815260200160002054816002018190555060066000815480929190610ce690611c58565b9190505550610cf4336112c7565b50565b60008054906101000a900473ffffffffffffffffffffffffffffffffffffffff1681565b60085481565b60055481565b6000803090508073ffffffffffffffffffffffffffffffffffffffff163191505090565b60095481565b60065481565b6000806002541415610d6857600080fd5b600160025442610d789190611ba9565b610d829190611b1e565b905090565b600a5481565b600160009054906101000a900473ffffffffffffffffffffffffffffffffffffffff1673ffffffffffffffffffffffffffffffffffffffff163373ffffffffffffffffffffffffffffffffffffffff1614610de757600080fd5b6000610df2306105a9565b118015610e00575042600354105b610e0957600080fd5b6000610e14306105a9565b905060008054906101000a900473ffffffffffffffffffffffffffffffffffffffff1673ffffffffffffffffffffffffffffffffffffffff1663095ea7b330836040518363ffffffff1660e01b8152600401610e7192919061198a565b602060405180830381600087803b158015610e8b57600080fd5b505af1158015610e9f573d6000803e3d6000fd5b505050506040513d601f19601f82011682018060405250810190610ec391906117e0565b5060008054906101000a900473ffffffffffffffffffffffffffffffffffffffff1673ffffffffffffffffffffffffffffffffffffffff166323b872dd3033846040518463ffffffff1660e01b8152600401610f2193929190611953565b602060405180830381600087803b158015610f3b57600080fd5b505af1158015610f4f573d6000803e3d6000fd5b505050506040513d601f19601f82011682018060405250810190610f7391906117e0565b5050565b600160009054906101000a900473ffffffffffffffffffffffffffffffffffffffff1681565b600160009054906101000a900473ffffffffffffffffffffffffffffffffffffffff1673ffffffffffffffffffffffffffffffffffffffff163373ffffffffffffffffffffffffffffffffffffffff1614610ff757600080fd5b6000611001610d27565b1161100b57600080fd5b600160009054906101000a900473ffffffffffffffffffffffffffffffffffffffff1673ffffffffffffffffffffffffffffffffffffffff166108fc61104f610d27565b9081150290604051600060405180830381858888f1935050505015801561107a573d6000803e3d6000fd5b50565b600042905090565b600080611091306105a9565b905080600a81905550600a5491505090565b6000600454905090565b600042600354116110bd57600080fd5b6001426003546110cd9190611ba9565b6110d79190611b1e565b905090565b60008060008054906101000a900473ffffffffffffffffffffffffffffffffffffffff1673ffffffffffffffffffffffffffffffffffffffff166370a08231336040518263ffffffff1660e01b81526004016111389190611938565b60206040518083038186803b15801561115057600080fd5b505afa158015611164573d6000803e3d6000fd5b505050506040513d601f19601f820116820180604052508101906111889190611809565b90508060098190555060095491505090565b60075481565b600080600b5490508060088190555060085491505090565b6000808314156111cb576000905061122d565b600082846111d99190611b4f565b90508284826111e89190611b1e565b14611228576040517f08c379a000000000000000000000000000000000000000000000000000000000815260040161121f90611a31565b60405180910390fd5b809150505b92915050565b600061127583836040518060400160405280601e81526020017f536166654d6174683a207375627472616374696f6e206f766572666c6f770000815250611660565b905092915050565b60006112bf83836040518060400160405280601a81526020017f536166654d6174683a206469766973696f6e206279207a65726f0000000000008152506116c4565b905092915050565b426003541180156112e0575060006112de306105a9565b115b6112e957600080fd5b600073ffffffffffffffffffffffffffffffffffffffff16600c60003373ffffffffffffffffffffffffffffffffffffffff1673ffffffffffffffffffffffffffffffffffffffff16815260200190815260200160002060000160009054906101000a900473ffffffffffffffffffffffffffffffffffffffff1673ffffffffffffffffffffffffffffffffffffffff16141561138557600080fd5b60006009541161139457600080fd5b600060095414156113d9577f3fc5b66c035c91568033dbb9c679bd7c3e9040a55a279a9383891d8dca0bb8c26040516113cc90611a51565b60405180910390a1600080fd5b63098968006009541061165d5760006113ff6008546009546111b890919063ffffffff16565b9050600061141a600754600a5461123390919063ffffffff16565b90506000611431828461127d90919063ffffffff16565b905060008054906101000a900473ffffffffffffffffffffffffffffffffffffffff1673ffffffffffffffffffffffffffffffffffffffff1663095ea7b330836040518363ffffffff1660e01b815260040161148e92919061198a565b602060405180830381600087803b1580156114a857600080fd5b505af11580156114bc573d6000803e3d6000fd5b505050506040513d601f19601f820116820180604052508101906114e091906117e0565b5060008054906101000a900473ffffffffffffffffffffffffffffffffffffffff1673ffffffffffffffffffffffffffffffffffffffff166323b872dd3086846040518463ffffffff1660e01b815260040161153e93929190611953565b602060405180830381600087803b15801561155857600080fd5b505af115801561156c573d6000803e3d6000fd5b505050506040513d601f19601f8201168201806040525081019061159091906117e0565b507fffd8ac882879055ca8fa8892b700aef7d21dec3d559518779e755c339d97b84e81856040516115c29291906119f5565b60405180910390a16115df81600b5461123390919063ffffffff16565b600b819055506115fa81600b5461123390919063ffffffff16565b60078190555080600c60003373ffffffffffffffffffffffffffffffffffffffff1673ffffffffffffffffffffffffffffffffffffffff16815260200190815260200160002060010160008282546116529190611ac8565b925050819055505050505b50565b60008383111582906116a8576040517f08c379a000000000000000000000000000000000000000000000000000000000815260040161169f91906119b3565b60405180910390fd5b50600083856116b79190611ba9565b9050809150509392505050565b6000808311829061170b576040517f08c379a000000000000000000000000000000000000000000000000000000000815260040161170291906119b3565b60405180910390fd5b506000838561171a9190611b1e565b9050809150509392505050565b60008135905061173681611e75565b92915050565b60008151905061174b81611e8c565b92915050565b60008135905061176081611ea3565b92915050565b60008151905061177581611ea3565b92915050565b60006020828403121561178d57600080fd5b600061179b84828501611727565b91505092915050565b600080604083850312156117b757600080fd5b60006117c585828601611727565b92505060206117d685828601611751565b9150509250929050565b6000602082840312156117f257600080fd5b60006118008482850161173c565b91505092915050565b60006020828403121561181b57600080fd5b600061182984828501611766565b91505092915050565b61183b81611bdd565b82525050565b600061184c82611aac565b6118568185611ab7565b9350611866818560208601611c25565b61186f81611cff565b840191505092915050565b6000611887603483611ab7565b915061189282611d10565b604082019050919050565b60006118aa601083611ab7565b91506118b582611d5f565b602082019050919050565b60006118cd602183611ab7565b91506118d882611d88565b604082019050919050565b60006118f0602983611ab7565b91506118fb82611dd7565b604082019050919050565b6000611913602f83611ab7565b915061191e82611e26565b604082019050919050565b61193281611c1b565b82525050565b600060208201905061194d6000830184611832565b92915050565b60006060820190506119686000830186611832565b6119756020830185611832565b6119826040830184611929565b949350505050565b600060408201905061199f6000830185611832565b6119ac6020830184611929565b9392505050565b600060208201905081810360008301526119cd8184611841565b905092915050565b600060208201905081810360008301526119ee8161187a565b9050919050565b60006060820190508181036000830152611a0e8161189d565b9050611a1d6020830185611929565b611a2a6040830184611832565b9392505050565b60006020820190508181036000830152611a4a816118c0565b9050919050565b60006020820190508181036000830152611a6a816118e3565b9050919050565b60006020820190508181036000830152611a8a81611906565b9050919050565b6000602082019050611aa66000830184611929565b92915050565b600081519050919050565b600082825260208201905092915050565b6000611ad382611c1b565b9150611ade83611c1b565b9250827fffffffffffffffffffffffffffffffffffffffffffffffffffffffffffffffff03821115611b1357611b12611ca1565b5b828201905092915050565b6000611b2982611c1b565b9150611b3483611c1b565b925082611b4457611b43611cd0565b5b828204905092915050565b6000611b5a82611c1b565b9150611b6583611c1b565b9250817fffffffffffffffffffffffffffffffffffffffffffffffffffffffffffffffff0483118215151615611b9e57611b9d611ca1565b5b828202905092915050565b6000611bb482611c1b565b9150611bbf83611c1b565b925082821015611bd257611bd1611ca1565b5b828203905092915050565b6000611be882611bfb565b9050919050565b60008115159050919050565b600073ffffffffffffffffffffffffffffffffffffffff82169050919050565b6000819050919050565b60005b83811015611c43578082015181840152602081019050611c28565b83811115611c52576000848401525b50505050565b6000611c6382611c1b565b91507fffffffffffffffffffffffffffffffffffffffffffffffffffffffffffffffff821415611c9657611c95611ca1565b5b600182019050919050565b7f4e487b7100000000000000000000000000000000000000000000000000000000600052601160045260246000fd5b7f4e487b7100000000000000000000000000000000000000000000000000000000600052601260045260246000fd5b6000601f19601f8301169050919050565b7f41697264726f7020537562736372697074696f6e20486172646361702052656160008201527f636865642c204e6f20546f6b656e73204c656674000000000000000000000000602082015250565b7f546f6b656e2044726f70706564202d2000000000000000000000000000000000600082015250565b7f536166654d6174683a206d756c7469706c69636174696f6e206f766572666c6f60008201527f7700000000000000000000000000000000000000000000000000000000000000602082015250565b7f5034432062616c616e6365206973207a65726f2c2062757920736f6d6520746f60008201527f6b656e2066697273740000000000000000000000000000000000000000000000602082015250565b7f45544820726566756e6465642c20646f206e6f742073656e642065746820746f60008201527f207468697320636f6e7472616374210000000000000000000000000000000000602082015250565b611e7e81611bdd565b8114611e8957600080fd5b50565b611e9581611bef565b8114611ea057600080fd5b50565b611eac81611c1b565b8114611eb757600080fd5b5056fea26469706673582212207b9f12f9c862421d723013002793f7508f7d9f305406ad91fae9ae1a9cfb8ae464736f6c63430008040033",
  "linkReferences": {},
  "deployedLinkReferences": {}
}